{
  "contractName": "Tickets",
  "abi": [
    {
      "inputs": [],
      "stateMutability": "nonpayable",
      "type": "constructor"
    },
    {
      "anonymous": false,
      "inputs": [
        {
          "indexed": true,
          "internalType": "address",
          "name": "owner",
          "type": "address"
        },
        {
          "indexed": true,
          "internalType": "address",
          "name": "approved",
          "type": "address"
        },
        {
          "indexed": true,
          "internalType": "uint256",
          "name": "tokenId",
          "type": "uint256"
        }
      ],
      "name": "Approval",
      "type": "event"
    },
    {
      "anonymous": false,
      "inputs": [
        {
          "indexed": true,
          "internalType": "address",
          "name": "owner",
          "type": "address"
        },
        {
          "indexed": true,
          "internalType": "address",
          "name": "operator",
          "type": "address"
        },
        {
          "indexed": false,
          "internalType": "bool",
          "name": "approved",
          "type": "bool"
        }
      ],
      "name": "ApprovalForAll",
      "type": "event"
    },
    {
      "anonymous": false,
      "inputs": [
        {
          "indexed": false,
          "internalType": "string",
          "name": "ticketId",
          "type": "string"
        },
        {
          "indexed": false,
          "internalType": "uint256[]",
          "name": "tokenIds",
          "type": "uint256[]"
        },
        {
          "indexed": false,
          "internalType": "string[]",
          "name": "metadataURIs",
          "type": "string[]"
        },
        {
          "indexed": false,
          "internalType": "string[]",
          "name": "qrCodeURIs",
          "type": "string[]"
        },
        {
          "indexed": false,
          "internalType": "bool",
          "name": "isTransferrable",
          "type": "bool"
        }
      ],
      "name": "TicketCreated",
      "type": "event"
    },
    {
      "anonymous": false,
      "inputs": [
        {
          "indexed": false,
          "internalType": "uint256",
          "name": "tokenId",
          "type": "uint256"
        },
        {
          "indexed": false,
          "internalType": "uint256",
          "name": "price",
          "type": "uint256"
        },
        {
          "indexed": false,
          "internalType": "address",
          "name": "seller",
          "type": "address"
        }
      ],
      "name": "TicketListedForResale",
      "type": "event"
    },
    {
      "anonymous": false,
      "inputs": [
        {
          "indexed": false,
          "internalType": "string",
          "name": "ticketId",
          "type": "string"
        },
        {
          "indexed": false,
          "internalType": "address",
          "name": "buyer",
          "type": "address"
        },
        {
          "indexed": false,
          "internalType": "uint256",
          "name": "tokenId",
          "type": "uint256"
        }
      ],
      "name": "TicketPurchased",
      "type": "event"
    },
    {
      "anonymous": false,
      "inputs": [
        {
          "indexed": false,
          "internalType": "uint256",
          "name": "tokenId",
          "type": "uint256"
        },
        {
          "indexed": false,
          "internalType": "address",
          "name": "seller",
          "type": "address"
        }
      ],
      "name": "TicketResaleCanceled",
      "type": "event"
    },
    {
      "anonymous": false,
      "inputs": [
        {
          "indexed": false,
          "internalType": "uint256",
          "name": "tokenId",
          "type": "uint256"
        },
        {
          "indexed": false,
          "internalType": "address",
          "name": "seller",
          "type": "address"
        },
        {
          "indexed": false,
          "internalType": "address",
          "name": "buyer",
          "type": "address"
        },
        {
          "indexed": false,
          "internalType": "uint256",
          "name": "price",
          "type": "uint256"
        }
      ],
      "name": "TicketResold",
      "type": "event"
    },
    {
      "anonymous": false,
      "inputs": [
        {
          "indexed": false,
          "internalType": "string",
          "name": "ticketId",
          "type": "string"
        },
        {
          "indexed": false,
          "internalType": "uint256",
          "name": "tokenId",
          "type": "uint256"
        },
        {
          "indexed": false,
          "internalType": "string",
          "name": "verificationHash",
          "type": "string"
        }
      ],
      "name": "TicketUsed",
      "type": "event"
    },
    {
      "anonymous": false,
      "inputs": [
        {
          "indexed": true,
          "internalType": "uint256",
          "name": "tokenId",
          "type": "uint256"
        },
        {
          "indexed": true,
          "internalType": "address",
          "name": "user",
          "type": "address"
        },
        {
          "indexed": false,
          "internalType": "uint256",
          "name": "timestamp",
          "type": "uint256"
        }
      ],
      "name": "TicketValidated",
      "type": "event"
    },
    {
      "anonymous": false,
      "inputs": [
        {
          "indexed": false,
          "internalType": "string",
          "name": "ticketId",
          "type": "string"
        },
        {
          "indexed": false,
          "internalType": "uint256",
          "name": "tokenId",
          "type": "uint256"
        },
        {
          "indexed": false,
          "internalType": "bool",
          "name": "isValid",
          "type": "bool"
        }
      ],
      "name": "TicketVerified",
      "type": "event"
    },
    {
      "anonymous": false,
      "inputs": [
        {
          "indexed": true,
          "internalType": "address",
          "name": "from",
          "type": "address"
        },
        {
          "indexed": true,
          "internalType": "address",
          "name": "to",
          "type": "address"
        },
        {
          "indexed": true,
          "internalType": "uint256",
          "name": "tokenId",
          "type": "uint256"
        }
      ],
      "name": "Transfer",
      "type": "event"
    },
    {
      "inputs": [
        {
          "internalType": "address",
          "name": "owner",
          "type": "address"
        }
      ],
      "name": "balanceOf",
      "outputs": [
        {
          "internalType": "uint256",
          "name": "",
          "type": "uint256"
        }
      ],
      "stateMutability": "view",
      "type": "function",
      "constant": true
    },
    {
      "inputs": [],
      "name": "contractOwner",
      "outputs": [
        {
          "internalType": "address",
          "name": "",
          "type": "address"
        }
      ],
      "stateMutability": "view",
      "type": "function",
      "constant": true
    },
    {
      "inputs": [
        {
          "internalType": "uint256",
          "name": "tokenId",
          "type": "uint256"
        }
      ],
      "name": "getApproved",
      "outputs": [
        {
          "internalType": "address",
          "name": "",
          "type": "address"
        }
      ],
      "stateMutability": "view",
      "type": "function",
      "constant": true
    },
    {
      "inputs": [
        {
          "internalType": "address",
          "name": "owner",
          "type": "address"
        },
        {
          "internalType": "address",
          "name": "operator",
          "type": "address"
        }
      ],
      "name": "isApprovedForAll",
      "outputs": [
        {
          "internalType": "bool",
          "name": "",
          "type": "bool"
        }
      ],
      "stateMutability": "view",
      "type": "function",
      "constant": true
    },
    {
      "inputs": [],
      "name": "name",
      "outputs": [
        {
          "internalType": "string",
          "name": "",
          "type": "string"
        }
      ],
      "stateMutability": "view",
      "type": "function",
      "constant": true
    },
    {
      "inputs": [
        {
          "internalType": "uint256",
          "name": "tokenId",
          "type": "uint256"
        }
      ],
      "name": "ownerOf",
      "outputs": [
        {
          "internalType": "address",
          "name": "",
          "type": "address"
        }
      ],
      "stateMutability": "view",
      "type": "function",
      "constant": true
    },
    {
      "inputs": [
        {
          "internalType": "uint256",
          "name": "",
          "type": "uint256"
        }
      ],
      "name": "resaleListings",
      "outputs": [
        {
          "internalType": "uint256",
          "name": "tokenId",
          "type": "uint256"
        },
        {
          "internalType": "uint256",
          "name": "price",
          "type": "uint256"
        },
        {
          "internalType": "bool",
          "name": "isActive",
          "type": "bool"
        },
        {
          "internalType": "address",
          "name": "seller",
          "type": "address"
        }
      ],
      "stateMutability": "view",
      "type": "function",
      "constant": true
    },
    {
      "inputs": [
        {
          "internalType": "bytes4",
          "name": "interfaceId",
          "type": "bytes4"
        }
      ],
      "name": "supportsInterface",
      "outputs": [
        {
          "internalType": "bool",
          "name": "",
          "type": "bool"
        }
      ],
      "stateMutability": "view",
      "type": "function",
      "constant": true
    },
    {
      "inputs": [],
      "name": "symbol",
      "outputs": [
        {
          "internalType": "string",
          "name": "",
          "type": "string"
        }
      ],
      "stateMutability": "view",
      "type": "function",
      "constant": true
    },
    {
      "inputs": [
        {
          "internalType": "string",
          "name": "",
          "type": "string"
        }
      ],
      "name": "ticketMetadata",
      "outputs": [
        {
          "internalType": "string",
          "name": "eventName",
          "type": "string"
        },
        {
          "internalType": "uint256",
          "name": "eventDate",
          "type": "uint256"
        },
        {
          "internalType": "string",
          "name": "ticketType",
          "type": "string"
        },
        {
          "internalType": "string",
          "name": "eventVenue",
          "type": "string"
        },
        {
          "internalType": "string",
          "name": "metadataURI",
          "type": "string"
        },
        {
          "internalType": "string",
          "name": "qrCodeURI",
          "type": "string"
        },
        {
          "internalType": "string",
          "name": "verificationHash",
          "type": "string"
        },
        {
          "internalType": "bool",
          "name": "isTransferrable",
          "type": "bool"
        }
      ],
      "stateMutability": "view",
      "type": "function",
      "constant": true
    },
    {
      "inputs": [
        {
          "internalType": "string",
          "name": "",
          "type": "string"
        }
      ],
      "name": "ticketSales",
      "outputs": [
        {
          "internalType": "uint256",
          "name": "price",
          "type": "uint256"
        },
        {
          "internalType": "address",
          "name": "owner",
          "type": "address"
        },
        {
          "internalType": "bool",
          "name": "isSold",
          "type": "bool"
        },
        {
          "internalType": "address",
          "name": "currentOwner",
          "type": "address"
        },
        {
          "internalType": "uint256",
          "name": "mintedQuantity",
          "type": "uint256"
        },
        {
          "internalType": "uint256",
          "name": "resalePrice",
          "type": "uint256"
        }
      ],
      "stateMutability": "view",
      "type": "function",
      "constant": true
    },
    {
      "inputs": [
        {
          "internalType": "uint256",
          "name": "",
          "type": "uint256"
        }
      ],
      "name": "ticketUsage",
      "outputs": [
        {
          "internalType": "bool",
          "name": "isUsed",
          "type": "bool"
        },
        {
          "internalType": "uint256",
          "name": "usedTime",
          "type": "uint256"
        },
        {
          "internalType": "address",
          "name": "usedBy",
          "type": "address"
        }
      ],
      "stateMutability": "view",
      "type": "function",
      "constant": true
    },
    {
      "inputs": [
        {
          "internalType": "uint256",
          "name": "",
          "type": "uint256"
        }
      ],
      "name": "tokenCurrentOwner",
      "outputs": [
        {
          "internalType": "address",
          "name": "",
          "type": "address"
        }
      ],
      "stateMutability": "view",
      "type": "function",
      "constant": true
    },
    {
      "inputs": [
        {
          "internalType": "uint256",
          "name": "",
          "type": "uint256"
        }
      ],
      "name": "tokenIdToTicketId",
      "outputs": [
        {
          "internalType": "string",
          "name": "",
          "type": "string"
        }
      ],
      "stateMutability": "view",
      "type": "function",
      "constant": true
    },
    {
      "inputs": [
        {
          "internalType": "uint256",
          "name": "tokenId",
          "type": "uint256"
        }
      ],
      "name": "tokenURI",
      "outputs": [
        {
          "internalType": "string",
          "name": "",
          "type": "string"
        }
      ],
      "stateMutability": "view",
      "type": "function",
      "constant": true
    },
    {
      "inputs": [
        {
          "internalType": "address",
          "name": "",
          "type": "address"
        },
        {
          "internalType": "uint256",
          "name": "",
          "type": "uint256"
        }
      ],
      "name": "userListings",
      "outputs": [
        {
          "internalType": "uint256",
          "name": "",
          "type": "uint256"
        }
      ],
      "stateMutability": "view",
      "type": "function",
      "constant": true
    },
    {
      "inputs": [
        {
          "internalType": "string",
          "name": "ticketId",
          "type": "string"
        },
        {
          "internalType": "uint256",
          "name": "price",
          "type": "uint256"
        },
        {
          "internalType": "string",
          "name": "eventName",
          "type": "string"
        },
        {
          "internalType": "uint256",
          "name": "eventDate",
          "type": "uint256"
        },
        {
          "internalType": "string",
          "name": "ticketType",
          "type": "string"
        },
        {
          "internalType": "string",
          "name": "eventVenue",
          "type": "string"
        },
        {
          "components": [
            {
              "internalType": "string",
              "name": "metadataURI",
              "type": "string"
            },
            {
              "internalType": "string",
              "name": "qrCodeURI",
              "type": "string"
            },
            {
              "internalType": "string",
              "name": "verificationHash",
              "type": "string"
            }
          ],
          "internalType": "struct Tickets.BatchTicketData[]",
          "name": "batchData",
          "type": "tuple[]"
        },
        {
          "internalType": "bool",
          "name": "isTransferrable",
          "type": "bool"
        }
      ],
      "name": "createTicketsInBatch",
      "outputs": [
        {
          "internalType": "uint256[]",
          "name": "",
          "type": "uint256[]"
        }
      ],
      "stateMutability": "nonpayable",
      "type": "function"
    },
    {
      "inputs": [
        {
          "internalType": "string",
          "name": "ticketId",
          "type": "string"
        },
        {
          "internalType": "uint256",
          "name": "tokenId",
          "type": "uint256"
        },
        {
          "internalType": "string",
          "name": "verificationHash",
          "type": "string"
        }
      ],
      "name": "verifyTicket",
      "outputs": [
        {
          "internalType": "bool",
          "name": "",
          "type": "bool"
        }
      ],
      "stateMutability": "nonpayable",
      "type": "function"
    },
    {
      "inputs": [
        {
          "internalType": "uint256",
          "name": "tokenId",
          "type": "uint256"
        }
      ],
      "name": "getTicketBatchData",
      "outputs": [
        {
          "components": [
            {
              "internalType": "string",
              "name": "metadataURI",
              "type": "string"
            },
            {
              "internalType": "string",
              "name": "qrCodeURI",
              "type": "string"
            },
            {
              "internalType": "string",
              "name": "verificationHash",
              "type": "string"
            }
          ],
          "internalType": "struct Tickets.BatchTicketData",
          "name": "",
          "type": "tuple"
        }
      ],
      "stateMutability": "view",
      "type": "function",
      "constant": true
    },
    {
      "inputs": [
        {
          "internalType": "string",
          "name": "ticketId",
          "type": "string"
        },
        {
          "internalType": "uint256",
          "name": "tokenId",
          "type": "uint256"
        },
        {
          "internalType": "uint256",
          "name": "newPrice",
          "type": "uint256"
        }
      ],
      "name": "setTicketForResale",
      "outputs": [],
      "stateMutability": "nonpayable",
      "type": "function"
    },
    {
      "inputs": [
        {
          "internalType": "string",
          "name": "ticketId",
          "type": "string"
        },
        {
          "internalType": "uint256",
          "name": "quantity",
          "type": "uint256"
        }
      ],
      "name": "buyTicket",
      "outputs": [],
      "stateMutability": "payable",
      "type": "function",
      "payable": true
    },
    {
      "inputs": [
        {
          "internalType": "string",
          "name": "ticketId",
          "type": "string"
        }
      ],
      "name": "getTicketDetails",
      "outputs": [
        {
          "components": [
            {
              "internalType": "uint256",
              "name": "price",
              "type": "uint256"
            },
            {
              "internalType": "address",
              "name": "owner",
              "type": "address"
            },
            {
              "internalType": "bool",
              "name": "isSold",
              "type": "bool"
            },
            {
              "internalType": "address",
              "name": "currentOwner",
              "type": "address"
            },
            {
              "internalType": "uint256",
              "name": "mintedQuantity",
              "type": "uint256"
            },
            {
              "internalType": "uint256",
              "name": "resalePrice",
              "type": "uint256"
            }
          ],
          "internalType": "struct Tickets.TicketSales",
          "name": "",
          "type": "tuple"
        }
      ],
      "stateMutability": "view",
      "type": "function",
      "constant": true
    },
    {
      "inputs": [
        {
          "internalType": "string",
          "name": "ticketId",
          "type": "string"
        },
        {
          "internalType": "uint256",
          "name": "tokenId",
          "type": "uint256"
        }
      ],
      "name": "validateAndUseTicket",
      "outputs": [
        {
          "internalType": "bool",
          "name": "",
          "type": "bool"
        }
      ],
      "stateMutability": "nonpayable",
      "type": "function"
    },
    {
      "inputs": [
        {
          "internalType": "uint256",
          "name": "tokenId",
          "type": "uint256"
        }
      ],
      "name": "getTokenUsageStatus",
      "outputs": [
        {
          "components": [
            {
              "internalType": "bool",
              "name": "isUsed",
              "type": "bool"
            },
            {
              "internalType": "uint256",
              "name": "usedTime",
              "type": "uint256"
            },
            {
              "internalType": "address",
              "name": "usedBy",
              "type": "address"
            }
          ],
          "internalType": "struct Tickets.TicketUsage",
          "name": "",
          "type": "tuple"
        }
      ],
      "stateMutability": "view",
      "type": "function",
      "constant": true
    },
    {
      "inputs": [
        {
          "internalType": "string",
          "name": "ticketId",
          "type": "string"
        },
        {
          "internalType": "uint256",
          "name": "tokenId",
          "type": "uint256"
        }
      ],
      "name": "isTokenValidForUse",
      "outputs": [
        {
          "internalType": "bool",
          "name": "",
          "type": "bool"
        }
      ],
      "stateMutability": "view",
      "type": "function",
      "constant": true
    },
    {
      "inputs": [
        {
          "internalType": "uint256",
          "name": "tokenId",
          "type": "uint256"
        }
      ],
      "name": "getTicketUsageDetails",
      "outputs": [
        {
          "components": [
            {
              "internalType": "bool",
              "name": "isUsed",
              "type": "bool"
            },
            {
              "internalType": "uint256",
              "name": "usedTime",
              "type": "uint256"
            },
            {
              "internalType": "address",
              "name": "usedBy",
              "type": "address"
            }
          ],
          "internalType": "struct Tickets.TicketUsage",
          "name": "",
          "type": "tuple"
        }
      ],
      "stateMutability": "view",
      "type": "function",
      "constant": true
    },
    {
      "inputs": [
        {
          "internalType": "uint256",
          "name": "tokenId",
          "type": "uint256"
        },
        {
          "internalType": "uint256",
          "name": "price",
          "type": "uint256"
        }
      ],
      "name": "listTicketForResale",
      "outputs": [],
      "stateMutability": "nonpayable",
      "type": "function"
    },
    {
      "inputs": [
        {
          "internalType": "uint256",
          "name": "tokenId",
          "type": "uint256"
        }
      ],
      "name": "cancelResaleListing",
      "outputs": [],
      "stateMutability": "nonpayable",
      "type": "function"
    },
    {
      "inputs": [
        {
          "internalType": "uint256",
          "name": "tokenId",
          "type": "uint256"
        }
      ],
      "name": "buyResaleTicket",
      "outputs": [],
      "stateMutability": "payable",
      "type": "function",
      "payable": true
    },
    {
      "inputs": [],
      "name": "getActiveResaleListings",
      "outputs": [
        {
          "internalType": "uint256[]",
          "name": "",
          "type": "uint256[]"
        }
      ],
      "stateMutability": "view",
      "type": "function",
      "constant": true
    },
    {
      "inputs": [
        {
          "internalType": "uint256",
          "name": "tokenId",
          "type": "uint256"
        }
      ],
      "name": "getResaleListingDetails",
      "outputs": [
        {
          "components": [
            {
              "internalType": "uint256",
              "name": "tokenId",
              "type": "uint256"
            },
            {
              "internalType": "uint256",
              "name": "price",
              "type": "uint256"
            },
            {
              "internalType": "bool",
              "name": "isActive",
              "type": "bool"
            },
            {
              "internalType": "address",
              "name": "seller",
              "type": "address"
            }
          ],
          "internalType": "struct Tickets.ResaleListing",
          "name": "",
          "type": "tuple"
        }
      ],
      "stateMutability": "view",
      "type": "function",
      "constant": true
    },
    {
      "inputs": [
        {
          "internalType": "uint256[]",
          "name": "tokenIds",
          "type": "uint256[]"
        },
        {
          "components": [
            {
              "internalType": "string",
              "name": "metadataURI",
              "type": "string"
            },
            {
              "internalType": "string",
              "name": "qrCodeURI",
              "type": "string"
            },
            {
              "internalType": "string",
              "name": "verificationHash",
              "type": "string"
            }
          ],
          "internalType": "struct Tickets.BatchTicketData[]",
          "name": "batchData",
          "type": "tuple[]"
        }
      ],
      "name": "updateBatchMetadata",
      "outputs": [],
      "stateMutability": "nonpayable",
      "type": "function"
    },
    {
      "inputs": [
        {
          "internalType": "uint256",
          "name": "tokenId",
          "type": "uint256"
        }
      ],
      "name": "getTokenCurrentOwner",
      "outputs": [
        {
          "internalType": "address",
          "name": "",
          "type": "address"
        }
      ],
      "stateMutability": "view",
      "type": "function",
      "constant": true
    },
    {
      "inputs": [
        {
          "internalType": "uint256",
          "name": "tokenId",
          "type": "uint256"
        }
      ],
      "name": "isTicketTransferrable",
      "outputs": [
        {
          "internalType": "bool",
          "name": "",
          "type": "bool"
        }
      ],
      "stateMutability": "view",
      "type": "function",
      "constant": true
    },
    {
      "inputs": [
        {
          "internalType": "address",
          "name": "from",
          "type": "address"
        },
        {
          "internalType": "address",
          "name": "to",
          "type": "address"
        },
        {
          "internalType": "uint256",
          "name": "tokenId",
          "type": "uint256"
        }
      ],
      "name": "transferFrom",
      "outputs": [],
      "stateMutability": "nonpayable",
      "type": "function"
    },
    {
      "inputs": [
        {
          "internalType": "address",
          "name": "from",
          "type": "address"
        },
        {
          "internalType": "address",
          "name": "to",
          "type": "address"
        },
        {
          "internalType": "uint256",
          "name": "tokenId",
          "type": "uint256"
        }
      ],
      "name": "safeTransferFrom",
      "outputs": [],
      "stateMutability": "nonpayable",
      "type": "function"
    },
    {
      "inputs": [
        {
          "internalType": "address",
          "name": "from",
          "type": "address"
        },
        {
          "internalType": "address",
          "name": "to",
          "type": "address"
        },
        {
          "internalType": "uint256",
          "name": "tokenId",
          "type": "uint256"
        },
        {
          "internalType": "bytes",
          "name": "data",
          "type": "bytes"
        }
      ],
      "name": "safeTransferFrom",
      "outputs": [],
      "stateMutability": "nonpayable",
      "type": "function"
    },
    {
      "inputs": [
        {
          "internalType": "address",
          "name": "to",
          "type": "address"
        },
        {
          "internalType": "uint256",
          "name": "tokenId",
          "type": "uint256"
        }
      ],
      "name": "approve",
      "outputs": [],
      "stateMutability": "nonpayable",
      "type": "function"
    },
    {
      "inputs": [
        {
          "internalType": "address",
          "name": "operator",
          "type": "address"
        },
        {
          "internalType": "bool",
          "name": "approved",
          "type": "bool"
        }
      ],
      "name": "setApprovalForAll",
      "outputs": [],
      "stateMutability": "nonpayable",
      "type": "function"
    }
  ],
  "bytecode": "0x60806040523480156200001157600080fd5b506040518060400160405280600b81526020016a115d995b9d151a58dad95d60aa1b815250604051806040016040528060048152602001634556544b60e01b815250816000908162000064919062000133565b50600162000073828262000133565b5050601080546001600160a01b0319163317905550620001ff565b634e487b7160e01b600052604160045260246000fd5b600181811c90821680620000b957607f821691505b602082108103620000da57634e487b7160e01b600052602260045260246000fd5b50919050565b601f8211156200012e57600081815260208120601f850160051c81016020861015620001095750805b601f850160051c820191505b818110156200012a5782815560010162000115565b5050505b505050565b81516001600160401b038111156200014f576200014f6200008e565b6200016781620001608454620000a4565b84620000e0565b602080601f8311600181146200019f5760008415620001865750858301515b600019600386901b1c1916600185901b1785556200012a565b600085815260208120601f198616915b82811015620001d057888601518255948401946001909101908401620001af565b5085821015620001ef5787850151600019600388901b60f8161c191681555b5050505050600190811b01905550565b6153c2806200020f6000396000f3fe60806040526004361061022f5760003560e01c806370a082311161012e578063b41b4bd4116100ab578063e985e9c51161006f578063e985e9c514610863578063eac68b1f146108ac578063efe5f93b1461090a578063f067bd9f1461092a578063f0911fb01461094a57600080fd5b8063b41b4bd4146106dd578063b88d4fde1461075b578063c87b56dd1461077b578063ce606ee01461079b578063e5cd7210146107bb57600080fd5b806395d89b41116100f257806395d89b4114610668578063a02f54941461067d578063a22cb465146106aa578063a28f161c146106ca578063aa7888bf146105db57600080fd5b806370a0823114610533578063766b573a146105615780637ac9c8d3146105db57806386cfa7d31461062857806389d257671461064857600080fd5b80631ff0ba9a116101bc57806342842e0e1161018057806342842e0e1461049357806356334ff9146104b357806357c72a7f146104d35780636053b0ef146104f35780636352211e1461051357600080fd5b80631ff0ba9a1461038e57806323b872dd146103ae5780632dcca1e8146103ce5780633263047b1461043d578063384759341461047357600080fd5b8063095ea7b311610203578063095ea7b3146102e35780630d6e989014610305578063154908af146103275780631abf4449146103475780631d9c5d5c1461037b57600080fd5b8062eef1571461023457806301ffc9a71461027157806306fdde03146102a1578063081812fc146102c3575b600080fd5b34801561024057600080fd5b5061025461024f366004614517565b61096a565b6040516001600160a01b0390911681526020015b60405180910390f35b34801561027d57600080fd5b5061029161028c366004614546565b6109e3565b6040519015158152602001610268565b3480156102ad57600080fd5b506102b6610a33565b60405161026891906145b3565b3480156102cf57600080fd5b506102546102de366004614517565b610ac5565b3480156102ef57600080fd5b506103036102fe3660046145e2565b610aec565b005b34801561031157600080fd5b5061031a610c5b565b6040516102689190614647565b34801561033357600080fd5b50610303610342366004614877565b610d72565b34801561035357600080fd5b5061036761036236600461492f565b610f48565b604051610268989796959493929190614963565b610303610389366004614517565b6112c6565b34801561039a57600080fd5b506103036103a93660046149f9565b611688565b3480156103ba57600080fd5b506103036103c9366004614a46565b611865565b3480156103da57600080fd5b506104176103e9366004614517565b600e6020526000908152604090208054600182015460029092015460ff90911691906001600160a01b031683565b60408051931515845260208401929092526001600160a01b031690820152606001610268565b34801561044957600080fd5b50610254610458366004614517565b6013602052600090815260409020546001600160a01b031681565b34801561047f57600080fd5b5061030361048e366004614517565b611999565b34801561049f57600080fd5b506103036104ae366004614a46565b611a9a565b3480156104bf57600080fd5b506102b66104ce366004614517565b611bc8565b3480156104df57600080fd5b506102916104ee366004614a82565b611c62565b3480156104ff57600080fd5b5061030361050e366004614ac6565b611d19565b34801561051f57600080fd5b5061025461052e366004614517565b6120a4565b34801561053f57600080fd5b5061055361054e366004614ae8565b612104565b604051908152602001610268565b34801561056d57600080fd5b5061058161057c36600461492f565b61218a565b6040516102689190815181526020808301516001600160a01b0390811691830191909152604080840151151590830152606080840151909116908201526080808301519082015260a0918201519181019190915260c00190565b3480156105e757600080fd5b506105fb6105f6366004614517565b6122a9565b6040805182511515815260208084015190820152918101516001600160a01b031690820152606001610268565b34801561063457600080fd5b506105536106433660046145e2565b612332565b34801561065457600080fd5b50610291610663366004614b03565b612363565b34801561067457600080fd5b506102b6612499565b34801561068957600080fd5b5061069d610698366004614517565b6124a8565b6040516102689190614b6f565b3480156106b657600080fd5b506103036106c5366004614be0565b6126c6565b6103036106d8366004614a82565b61275d565b3480156106e957600080fd5b5061072c6106f8366004614517565b60116020526000908152604090208054600182015460029092015490919060ff81169061010090046001600160a01b031684565b604080519485526020850193909352901515918301919091526001600160a01b03166060820152608001610268565b34801561076757600080fd5b50610303610776366004614c13565b612c96565b34801561078757600080fd5b506102b6610796366004614517565b612dcc565b3480156107a757600080fd5b50601054610254906001600160a01b031681565b3480156107c757600080fd5b506108266107d636600461492f565b80516020818301810180516008825292820191909301209152805460018201546002830154600384015460049094015492936001600160a01b0380841694600160a01b90940460ff169392169186565b604080519687526001600160a01b0395861660208801529315159386019390935292166060840152608083019190915260a082015260c001610268565b34801561086f57600080fd5b5061029161087e366004614c8e565b6001600160a01b03918216600090815260056020908152604080832093909416825291909152205460ff1690565b3480156108b857600080fd5b506108cc6108c7366004614517565b612e40565b604051610268919081518152602080830151908201526040808301511515908201526060918201516001600160a01b03169181019190915260800190565b34801561091657600080fd5b5061031a610925366004614cb8565b612f10565b34801561093657600080fd5b50610291610945366004614517565b61336f565b34801561095657600080fd5b50610291610965366004614a82565b61345c565b600061097582613682565b61099a5760405162461bcd60e51b815260040161099190614dad565b60405180910390fd5b6000828152601360205260409020546001600160a01b03166109c4576109bf826120a4565b6109dd565b6000828152601360205260409020546001600160a01b03165b92915050565b60006001600160e01b031982166380ac58cd60e01b1480610a1457506001600160e01b03198216635b5e139f60e01b145b806109dd57506301ffc9a760e01b6001600160e01b03198316146109dd565b606060008054610a4290614ddb565b80601f0160208091040260200160405190810160405280929190818152602001828054610a6e90614ddb565b8015610abb5780601f10610a9057610100808354040283529160200191610abb565b820191906000526020600020905b815481529060010190602001808311610a9e57829003601f168201915b5050505050905090565b6000610ad0826136ae565b506000908152600460205260409020546001600160a01b031690565b60008181526009602052604081208054610b0590614ddb565b80601f0160208091040260200160405190810160405280929190818152602001828054610b3190614ddb565b8015610b7e5780601f10610b5357610100808354040283529160200191610b7e565b820191906000526020600020905b815481529060010190602001808311610b6157829003601f168201915b50505050509050600781604051610b959190614e15565b9081526040519081900360200190206007015460ff1680610bc557506000828152600f602052604090205460ff16155b80610bda57506010546001600160a01b031633145b610c4c5760405162461bcd60e51b815260206004820152603960248201527f4e6f6e2d7472616e736665727261626c65207469636b6574732063616e6e6f7460448201527f20626520617070726f76656420666f72207472616e73666572000000000000006064820152608401610991565b610c568383613701565b505050565b60606000610c6860065490565b9050600060015b828111610cb05760008181526011602052604090206002015460ff1615610c9e5781610c9a81614e47565b9250505b80610ca881614e47565b915050610c6f565b506000816001600160401b03811115610ccb57610ccb61465a565b604051908082528060200260200182016040528015610cf4578160200160208202803683370190505b509050600060015b848111158015610d0b57508382105b15610d685760008181526011602052604090206002015460ff1615610d565780838381518110610d3d57610d3d614e60565b602090810291909101015281610d5281614e47565b9250505b80610d6081614e47565b915050610cfc565b5090949350505050565b6010546001600160a01b03163314610dc25760405162461bcd60e51b815260206004820152601360248201527227b7363c9031b7b73a3930b1ba1037bbb732b960691b6044820152606401610991565b8051825114610e0c5760405162461bcd60e51b8152602060048201526016602482015275082e4e4c2f2e640d8cadccee8d040dad2e6dac2e8c6d60531b6044820152606401610991565b60005b8251811015610c5657610e3a838281518110610e2d57610e2d614e60565b6020026020010151613682565b610e565760405162461bcd60e51b815260040161099190614dad565b818181518110610e6857610e68614e60565b6020026020010151600d6000858481518110610e8657610e86614e60565b602002602001015181526020019081526020016000206000820151816000019081610eb19190614ec4565b5060208201516001820190610ec69082614ec4565b5060408201516002820190610edb9082614ec4565b50905050818181518110610ef157610ef1614e60565b602002602001015160000151600c6000858481518110610f1357610f13614e60565b602002602001015181526020019081526020016000209081610f359190614ec4565b5080610f4081614e47565b915050610e0f565b8051602081830181018051600782529282019190930120915280548190610f6e90614ddb565b80601f0160208091040260200160405190810160405280929190818152602001828054610f9a90614ddb565b8015610fe75780601f10610fbc57610100808354040283529160200191610fe7565b820191906000526020600020905b815481529060010190602001808311610fca57829003601f168201915b50505050509080600101549080600201805461100290614ddb565b80601f016020809104026020016040519081016040528092919081815260200182805461102e90614ddb565b801561107b5780601f106110505761010080835404028352916020019161107b565b820191906000526020600020905b81548152906001019060200180831161105e57829003601f168201915b50505050509080600301805461109090614ddb565b80601f01602080910402602001604051908101604052809291908181526020018280546110bc90614ddb565b80156111095780601f106110de57610100808354040283529160200191611109565b820191906000526020600020905b8154815290600101906020018083116110ec57829003601f168201915b50505050509080600401805461111e90614ddb565b80601f016020809104026020016040519081016040528092919081815260200182805461114a90614ddb565b80156111975780601f1061116c57610100808354040283529160200191611197565b820191906000526020600020905b81548152906001019060200180831161117a57829003601f168201915b5050505050908060050180546111ac90614ddb565b80601f01602080910402602001604051908101604052809291908181526020018280546111d890614ddb565b80156112255780601f106111fa57610100808354040283529160200191611225565b820191906000526020600020905b81548152906001019060200180831161120857829003601f168201915b50505050509080600601805461123a90614ddb565b80601f016020809104026020016040519081016040528092919081815260200182805461126690614ddb565b80156112b35780601f10611288576101008083540402835291602001916112b3565b820191906000526020600020905b81548152906001019060200180831161129657829003601f168201915b5050506007909301549192505060ff1688565b6000818152601160209081526040918290208251608081018452815481526001820154928101929092526002015460ff8116151592820183905261010090046001600160a01b03166060820152906113585760405162461bcd60e51b81526020600482015260156024820152744e6f74206c697374656420666f7220726573616c6560581b6044820152606401610991565b60608101516001600160a01b031633036113ac5760405162461bcd60e51b815260206004820152601560248201527410d85b9b9bdd08189d5e481bdddb881d1a58dad95d605a1b6044820152606401610991565b80602001513410156113f75760405162461bcd60e51b8152602060048201526014602482015273125b9cdd59999a58da595b9d081c185e5b595b9d60621b6044820152606401610991565b6000828152600e602052604090205460ff16156114265760405162461bcd60e51b815260040161099190614f83565b6000828152600960205260408120805461143f90614ddb565b80601f016020809104026020016040519081016040528092919081815260200182805461146b90614ddb565b80156114b85780601f1061148d576101008083540402835291602001916114b8565b820191906000526020600020905b81548152906001019060200180831161149b57829003601f168201915b505050505090506007816040516114cf9190614e15565b9081526040519081900360200190206007015460ff16806114ff57506000838152600f602052604090205460ff16155b6115715760405162461bcd60e51b815260206004820152603860248201527f54686973207469636b65742063616e6e6f74206265207472616e73666572726560448201527f6420616674657220696e697469616c20707572636861736500000000000000006064820152608401610991565b6060820151602080840151600086815260149092526040909120805460ff191660011790556115a0338661380d565b6115ab82338761387b565b6000858152600f60209081526040808320805460ff19908116600117909155601483528184208054821690556011835281842060020180549091169055601390915280822080546001600160a01b03191633179055516001600160a01b0384169183156108fc02918491818181858888f19350505050158015611632573d6000803e3d6000fd5b50604080518681526001600160a01b038416602082015233818301526060810183905290517fd59a36d8310ffb140214be490baf3fe8961f859a17199ec1bf9015c8b73400119181900360800190a15050505050565b61169182613682565b6116ad5760405162461bcd60e51b815260040161099190614dad565b336116b7836120a4565b6001600160a01b0316146116ff5760405162461bcd60e51b815260206004820152600f60248201526e2737ba103a37b5b2b71037bbb732b960891b6044820152606401610991565b8280519060200120600960008481526020019081526020016000206040516117279190615023565b60405180910390201461174c5760405162461bcd60e51b81526004016109919061502f565b6000828152600e602052604090205460ff161561177b5760405162461bcd60e51b815260040161099190614f83565b60088360405161178b9190614e15565b908152604051908190036020019020548111156117fc5760405162461bcd60e51b815260206004820152602960248201527f526573616c652070726963652063616e6e6f7420657863656564206f726967696044820152686e616c20707269636560b81b6064820152608401610991565b8060088460405161180d9190614e15565b90815260200160405180910390206004018190555060006008846040516118349190614e15565b9081526040519081900360200190206001018054911515600160a01b0260ff60a01b19909216919091179055505050565b6000818152600960205260408120805461187e90614ddb565b80601f01602080910402602001604051908101604052809291908181526020018280546118aa90614ddb565b80156118f75780601f106118cc576101008083540402835291602001916118f7565b820191906000526020600020905b8154815290600101906020018083116118da57829003601f168201915b5050505050905060078160405161190e9190614e15565b9081526040519081900360200190206007015460ff168061193e57506000828152600f602052604090205460ff16155b80611957575060008281526014602052604090205460ff165b8061196c57506010546001600160a01b031633145b6119885760405162461bcd60e51b815260040161099190615070565b6119938484846139ec565b50505050565b60008181526011602052604090206002015460ff166119e75760405162461bcd60e51b815260206004820152600a602482015269139bdd081b1a5cdd195960b21b6044820152606401610991565b60008181526011602052604090206002015461010090046001600160a01b03163314611a425760405162461bcd60e51b815260206004820152600a6024820152692737ba1039b2b63632b960b11b6044820152606401610991565b600081815260116020908152604091829020600201805460ff19169055815183815233918101919091527f0e9abe90d06c44631fd6e833bae34e489953538e561eebf3046a925e9346d30a910160405180910390a150565b60008181526009602052604081208054611ab390614ddb565b80601f0160208091040260200160405190810160405280929190818152602001828054611adf90614ddb565b8015611b2c5780601f10611b0157610100808354040283529160200191611b2c565b820191906000526020600020905b815481529060010190602001808311611b0f57829003601f168201915b50505050509050600781604051611b439190614e15565b9081526040519081900360200190206007015460ff1680611b7357506000828152600f602052604090205460ff16155b80611b8c575060008281526014602052604090205460ff165b80611ba157506010546001600160a01b031633145b611bbd5760405162461bcd60e51b815260040161099190615070565b611993848484613a1d565b60096020526000908152604090208054611be190614ddb565b80601f0160208091040260200160405190810160405280929190818152602001828054611c0d90614ddb565b8015611c5a5780601f10611c2f57610100808354040283529160200191611c5a565b820191906000526020600020905b815481529060010190602001808311611c3d57829003601f168201915b505050505081565b6000611c6d82613682565b611c79575060006109dd565b600783604051611c899190614e15565b9081526040519081900360200190208054611ca390614ddb565b9050600003611cb4575060006109dd565b828051906020012060096000848152602001908152602001600020604051611cdc9190615023565b604051809103902014611cf1575060006109dd565b6000828152600e602052604090205460ff1615611d10575060006109dd565b50600192915050565b611d2282613682565b611d3e5760405162461bcd60e51b815260040161099190614dad565b33611d48836120a4565b6001600160a01b031614611d905760405162461bcd60e51b815260206004820152600f60248201526e2737ba103a37b5b2b71037bbb732b960891b6044820152606401610991565b6000828152600e602052604090205460ff1615611dbf5760405162461bcd60e51b815260040161099190614f83565b60008281526009602052604081208054611dd890614ddb565b80601f0160208091040260200160405190810160405280929190818152602001828054611e0490614ddb565b8015611e515780601f10611e2657610100808354040283529160200191611e51565b820191906000526020600020905b815481529060010190602001808311611e3457829003601f168201915b50505050509050600781604051611e689190614e15565b9081526040519081900360200190206007015460ff1680611e9857506000838152600f602052604090205460ff16155b611f0a5760405162461bcd60e51b815260206004820152603e60248201527f54686973207469636b65742063616e6e6f74206265206c697374656420666f7260448201527f20726573616c6520616674657220696e697469616c20707572636861736500006064820152608401610991565b6000600882604051611f1c9190614e15565b90815260405190819003602001902054905080831115611f775760405162461bcd60e51b8152602060048201526016602482015275141c9a58d948195e18d959591cc81bdc9a59da5b985b60521b6044820152606401610991565b60008481526011602052604090206002015460ff1615611fca5760405162461bcd60e51b815260206004820152600e60248201526d105b1c9958591e481b1a5cdd195960921b6044820152606401610991565b604080516080810182528581526020808201868152600183850181815233606080870182815260008d8152601188528981209851895595518886015592516002909701805493516001600160a01b031661010002610100600160a81b0319981515989098166001600160a81b031990941693909317969096179091558083526012845285832080549283018155835291839020018890558351888152918201879052928101929092527f796a59a7a4c697d47537610ecd74a44a1c7903071c0330e278f4529fc167c0ee910160405180910390a150505050565b6000818152600260205260408120546001600160a01b0316806109dd5760405162461bcd60e51b8152602060048201526018602482015277115490cdcc8c4e881a5b9d985b1a59081d1bdad95b88125160421b6044820152606401610991565b60006001600160a01b03821661216e5760405162461bcd60e51b815260206004820152602960248201527f4552433732313a2061646472657373207a65726f206973206e6f7420612076616044820152683634b21037bbb732b960b91b6064820152608401610991565b506001600160a01b031660009081526003602052604090205490565b6040805160c081018252600080825260208201819052918101829052606081018290526080810182905260a081019190915260006007836040516121ce9190614e15565b90815260405190819003602001902080546121e890614ddb565b90501161222e5760405162461bcd60e51b8152602060048201526014602482015273111bd95cc81b9bdd081a185d99481d1a58dad95d60621b6044820152606401610991565b60088260405161223e9190614e15565b90815260408051918290036020908101832060c0840183528054845260018101546001600160a01b038082169386019390935260ff600160a01b909104161515928401929092526002820154166060830152600381015460808301526004015460a082015292915050565b60408051606081018252600080825260208201819052918101919091526122cf82613682565b6122eb5760405162461bcd60e51b815260040161099190614dad565b506000908152600e60209081526040918290208251606081018452815460ff1615158152600182015492810192909252600201546001600160a01b03169181019190915290565b6012602052816000526040600020818154811061234e57600080fd5b90600052602060002001600091509150505481565b600061236e83613682565b6123aa5760405162461bcd60e51b815260206004820152600d60248201526c24b73b30b634b2103a37b5b2b760991b6044820152606401610991565b60006007856040516123bc9190614e15565b90815260405190819003602001902080546123d690614ddb565b9050116123f55760405162461bcd60e51b8152600401610991906150be565b6000826040516020016124089190614e15565b60408051601f1981840301815282825280516020918201206000888152600d835292909220919261243d926002019101615023565b604051602081830303815290604052805190602001201490507ff4b2f9727ab7aae3f64b4162c2b09c92c9ebc06c68bdecd60e848a95467df6c8858583604051612489939291906150e6565b60405180910390a1949350505050565b606060018054610a4290614ddb565b6124cc60405180606001604052806060815260200160608152602001606081525090565b6124d582613682565b6124f15760405162461bcd60e51b815260040161099190614dad565b6000828152600d60205260409081902081516060810190925280548290829061251990614ddb565b80601f016020809104026020016040519081016040528092919081815260200182805461254590614ddb565b80156125925780601f1061256757610100808354040283529160200191612592565b820191906000526020600020905b81548152906001019060200180831161257557829003601f168201915b505050505081526020016001820180546125ab90614ddb565b80601f01602080910402602001604051908101604052809291908181526020018280546125d790614ddb565b80156126245780601f106125f957610100808354040283529160200191612624565b820191906000526020600020905b81548152906001019060200180831161260757829003601f168201915b5050505050815260200160028201805461263d90614ddb565b80601f016020809104026020016040519081016040528092919081815260200182805461266990614ddb565b80156126b65780601f1061268b576101008083540402835291602001916126b6565b820191906000526020600020905b81548152906001019060200180831161269957829003601f168201915b5050505050815250509050919050565b6010546001600160a01b03163314806126dd575080155b61274f5760405162461bcd60e51b815260206004820152603860248201527f43616e6e6f742073657420617070726f76616c20666f7220616c6c206f6e206e60448201527f6f6e2d7472616e736665727261626c65207469636b65747300000000000000006064820152608401610991565b6127598282613a38565b5050565b600060078360405161276f9190614e15565b908152604051908190036020019020805461278990614ddb565b9050116127a85760405162461bcd60e51b8152600401610991906150be565b6008826040516127b89190614e15565b9081526040519081900360200190206001015460ff600160a01b909104161561280e5760405162461bcd60e51b815260206004820152600860248201526714dbdb19081bdd5d60c21b6044820152606401610991565b60088260405161281e9190614e15565b908152604051908190036020019020600201546001600160a01b0316330361287b5760405162461bcd60e51b815260206004820152601060248201526f4f776e65722063616e6e6f742062757960801b6044820152606401610991565b600081116128be5760405162461bcd60e51b815260206004820152601060248201526f496e76616c6964207175616e7469747960801b6044820152606401610991565b60006128c983613a43565b6008846040516128d99190614e15565b9081526020016040518091039020600301546128f59190615110565b9050818110156129475760405162461bcd60e51b815260206004820152601c60248201527f4e6f7420656e6f756768207469636b65747320617661696c61626c65000000006044820152606401610991565b6000826001600160401b038111156129615761296161465a565b60405190808252806020026020018201604052801561298a578160200160208202803683370190505b50905060008061299960065490565b905060015b8181111580156129ad57508583105b15612a32578680519060200120600960008381526020019081526020016000206040516129da9190615023565b604051809103902003612a20576129f081613ac8565b612a205780848481518110612a0757612a07614e60565b602090810291909101015282612a1c81614e47565b9350505b80612a2a81614e47565b91505061299e565b50848214612a825760405162461bcd60e51b815260206004820152601c60248201527f4e6f7420656e6f75676820617661696c61626c65207469636b657473000000006044820152606401610991565b600080600888604051612a959190614e15565b90815260200160405180910390206004015411612ad157600887604051612abc9190614e15565b90815260405190819003602001902054612af4565b600887604051612ae19190614e15565b9081526020016040518091039020600401545b90506000612b028783615123565b905080341015612b4b5760405162461bcd60e51b8152602060048201526014602482015273125b9cdd59999a58da595b9d081c185e5b595b9d60621b6044820152606401610991565b6000600889604051612b5d9190614e15565b908152604051908190036020019020600101546001600160a01b0316905060005b88811015612c53576000878281518110612b9a57612b9a614e60565b602090810291909101810151600081815260149092526040909120805460ff191660011790559050612bcc338261380d565b612bd783338361387b565b6000818152600f60209081526040808320805460ff1990811660011790915560149092529182902080549091169055517fce08fd98daa74c33a6249863a5f31651283e7fdda7d778f77c5cb35ff59dd67f90612c38908d903390859061513a565b60405180910390a15080612c4b81614e47565b915050612b7e565b506040516001600160a01b0382169083156108fc029084906000818181858888f19350505050158015612c8a573d6000803e3d6000fd5b50505050505050505050565b60008281526009602052604081208054612caf90614ddb565b80601f0160208091040260200160405190810160405280929190818152602001828054612cdb90614ddb565b8015612d285780601f10612cfd57610100808354040283529160200191612d28565b820191906000526020600020905b815481529060010190602001808311612d0b57829003601f168201915b50505050509050600781604051612d3f9190614e15565b9081526040519081900360200190206007015460ff1680612d6f57506000838152600f602052604090205460ff16155b80612d88575060008381526014602052604090205460ff165b80612d9d57506010546001600160a01b031633145b612db95760405162461bcd60e51b815260040161099190615070565b612dc585858585613b0a565b5050505050565b6060612dd7826136ae565b6000612dee60408051602081019091526000815290565b90506000815111612e0e5760405180602001604052806000815250612e39565b80612e1884613b3c565b604051602001612e29929190615168565b6040516020818303038152906040525b9392505050565b60408051608081018252600080825260208201819052918101829052606081019190915260008281526011602052604090206002015460ff16612ebd5760405162461bcd60e51b81526020600482015260156024820152744e6f74206c697374656420666f7220726573616c6560581b6044820152606401610991565b506000908152601160209081526040918290208251608081018452815481526001820154928101929092526002015460ff81161515928201929092526101009091046001600160a01b0316606082015290565b6010546060906001600160a01b03163314612f635760405162461bcd60e51b815260206004820152601360248201527227b7363c9031b7b73a3930b1ba1037bbb732b960691b6044820152606401610991565b600789604051612f739190614e15565b9081526040519081900360200190208054612f8d90614ddb565b159050612fd45760405162461bcd60e51b81526020600482015260156024820152745469636b657420616c72656164792065786973747360581b6044820152606401610991565b600088116130145760405162461bcd60e51b815260206004820152600d60248201526c496e76616c696420707269636560981b6044820152606401610991565b60008351116130655760405162461bcd60e51b815260206004820152601760248201527f4e6f207469636b657420646174612070726f76696465640000000000000000006044820152606401610991565b61307489898989898988613bce565b600083516001600160401b0381111561308f5761308f61465a565b6040519080825280602002602001820160405280156130b8578160200160208202803683370190505b509050600084516001600160401b038111156130d6576130d661465a565b60405190808252806020026020018201604052801561310957816020015b60608152602001906001900390816130f45790505b509050600085516001600160401b038111156131275761312761465a565b60405190808252806020026020018201604052801561315a57816020015b60608152602001906001900390816131455790505b50905060005b865181101561331f57613177600680546001019055565b600061318260065490565b600081815260096020526040902090915061319d8f82614ec4565b50604080516080810182526000606082018181528252825160208181018552828252808401919091528351808201855282815283850152848252600d905291909120815181906131ed9082614ec4565b50602082015160018201906132029082614ec4565b50604082015160028201906132179082614ec4565b509050506132253382613df2565b336013600083815260200190815260200160002060006101000a8154816001600160a01b0302191690836001600160a01b0316021790555060088e60405161326d9190614e15565b908152604051908190036020019020600301805490600061328d83614e47565b9190505550808583815181106132a5576132a5614e60565b602002602001018181525050604051806020016040528060008152508483815181106132d3576132d3614e60565b60200260200101819052506040518060200160405280600081525083838151811061330057613300614e60565b602002602001018190525050808061331790614e47565b915050613160565b507fa938782c4800e97e04fc7af9ddd1b43c288eb1e00888a6ad29944bd2bdba1e6e8c848484896040516133579594939291906151ec565b60405180910390a150909a9950505050505050505050565b600061337a82613682565b6133965760405162461bcd60e51b815260040161099190614dad565b600082815260096020526040812080546133af90614ddb565b80601f01602080910402602001604051908101604052809291908181526020018280546133db90614ddb565b80156134285780601f106133fd57610100808354040283529160200191613428565b820191906000526020600020905b81548152906001019060200180831161340b57829003601f168201915b5050505050905060078160405161343f9190614e15565b9081526040519081900360200190206007015460ff169392505050565b600061346782613682565b6134835760405162461bcd60e51b815260040161099190614dad565b3361348d836120a4565b6001600160a01b0316146134d65760405162461bcd60e51b815260206004820152601060248201526f2737ba103a34b1b5b2ba1037bbb732b960811b6044820152606401610991565b60006007846040516134e89190614e15565b908152604051908190036020019020805461350290614ddb565b9050116135215760405162461bcd60e51b8152600401610991906150be565b8280519060200120600960008481526020019081526020016000206040516135499190615023565b60405180910390201461356e5760405162461bcd60e51b81526004016109919061502f565b6000828152600e602052604090205460ff16156135e05760405162461bcd60e51b815260206004820152602a60248201527f54686973207370656369666963207469636b65742068617320616c7265616479604482015269081899595b881d5cd95960b21b6064820152608401610991565b6040805160608101825260018082524260208084018281523385870181815260008a8152600e85528890209651875460ff191690151517875591519486019490945551600290940180546001600160a01b0319166001600160a01b039095169490941790935592519283529184917f0f137b803bda0e783a5813bfbe6aea52b7266099f07104eb3b23087e54fce362910160405180910390a350600192915050565b60008181526002602052604081205481906001600160a01b03165b6001600160a01b0316141592915050565b6136b781613682565b6136fe5760405162461bcd60e51b8152602060048201526018602482015277115490cdcc8c4e881a5b9d985b1a59081d1bdad95b88125160421b6044820152606401610991565b50565b600061370c826120a4565b9050806001600160a01b0316836001600160a01b0316036137795760405162461bcd60e51b815260206004820152602160248201527f4552433732313a20617070726f76616c20746f2063757272656e74206f776e656044820152603960f91b6064820152608401610991565b336001600160a01b03821614806137955750613795813361087e565b6138075760405162461bcd60e51b815260206004820152603d60248201527f4552433732313a20617070726f76652063616c6c6572206973206e6f7420746f60448201527f6b656e206f776e6572206f7220617070726f76656420666f7220616c6c0000006064820152608401610991565b610c5683835b600081815260046020526040902080546001600160a01b0319166001600160a01b0384169081179091558190613842826120a4565b6001600160a01b03167f8c5be1e5ebec7d5bd14f71427d1e84f3dd0314c0f7b2291e5b200ac8c7c3b92560405160405180910390a45050565b826001600160a01b031661388e826120a4565b6001600160a01b0316146138b45760405162461bcd60e51b81526004016109919061524e565b6001600160a01b0382166139165760405162461bcd60e51b8152602060048201526024808201527f4552433732313a207472616e7366657220746f20746865207a65726f206164646044820152637265737360e01b6064820152608401610991565b6139238383836001613e0c565b826001600160a01b0316613936826120a4565b6001600160a01b03161461395c5760405162461bcd60e51b81526004016109919061524e565b600081815260046020908152604080832080546001600160a01b03199081169091556001600160a01b0387811680865260038552838620805460001901905590871680865283862080546001019055868652600290945282852080549092168417909155905184937fddf252ad1be2c89b69c2b068fc378daa952ba7f163c4a11628f55a4df523b3ef91a4505050565b6139f63382614010565b613a125760405162461bcd60e51b815260040161099190615293565b610c5683838361387b565b610c5683838360405180602001604052806000815250612c96565b61275933838361408f565b60008080613a5060065490565b905060015b818111613abf57848051906020012060096000838152602001908152602001600020604051613a849190615023565b604051809103902003613aad57613a9a81613ac8565b15613aad5782613aa981614e47565b9350505b80613ab781614e47565b915050613a55565b50909392505050565b6000818152600960205260408082209051600891613ae591615023565b908152604051908190036020019020600101546001600160a01b031661369d836120a4565b613b143383614010565b613b305760405162461bcd60e51b815260040161099190615293565b6119938484848461415d565b60606000613b4983614190565b60010190506000816001600160401b03811115613b6857613b6861465a565b6040519080825280601f01601f191660200182016040528015613b92576020820181803683370190505b5090508181016020015b600019016f181899199a1a9b1b9c1cb0b131b232b360811b600a86061a8153600a8504945084613b9c57509392505050565b600787604051613bde9190614e15565b9081526040519081900360200190208054613bf890614ddb565b9050600003613de957604051806101000160405280868152602001858152602001848152602001838152602001604051806020016040528060008152508152602001604051806020016040528060008152508152602001604051806020016040528060008152508152602001821515815250600788604051613c7a9190614e15565b90815260405190819003602001902081518190613c979082614ec4565b506020820151600182015560408201516002820190613cb69082614ec4565b5060608201516003820190613ccb9082614ec4565b5060808201516004820190613ce09082614ec4565b5060a08201516005820190613cf59082614ec4565b5060c08201516006820190613d0a9082614ec4565b5060e091909101516007909101805460ff19169115159190911790556040805160c0810182528781523360208201819052600082840181905260608301919091526080820181905260a08201529051600890613d67908a90614e15565b908152604080519182900360209081019092208351815591830151600183018054928501511515600160a01b026001600160a81b03199093166001600160a01b0392831617929092179091556060830151600283018054919092166001600160a01b0319919091161790556080820151600382015560a0909101516004909101555b50505050505050565b612759828260405180602001604052806000815250614268565b6001600160a01b03841615801590613e2c57506001600160a01b03831615155b156119935760008281526009602052604081208054613e4a90614ddb565b80601f0160208091040260200160405190810160405280929190818152602001828054613e7690614ddb565b8015613ec35780601f10613e9857610100808354040283529160200191613ec3565b820191906000526020600020905b815481529060010190602001808311613ea657829003601f168201915b505050505090506000600782604051613edc9190614e15565b9081526040519081900360200190208054613ef690614ddb565b905011613f155760405162461bcd60e51b8152600401610991906150be565b600781604051613f259190614e15565b9081526040519081900360200190206007015460ff16158015613f5657506000838152600f602052604090205460ff165b15613ff45760008381526014602052604090205460ff1680613f8257506010546001600160a01b031633145b613ff45760405162461bcd60e51b815260206004820152603860248201527f4e6f6e2d7472616e736665727261626c65207469636b6574732063616e6e6f7460448201527f206265207472616e73666572726564206469726563746c7900000000000000006064820152608401610991565b50506000908152601460205260409020805460ff191690555050565b60008061401c836120a4565b9050806001600160a01b0316846001600160a01b0316148061406357506001600160a01b0380821660009081526005602090815260408083209388168352929052205460ff165b806140875750836001600160a01b031661407c84610ac5565b6001600160a01b0316145b949350505050565b816001600160a01b0316836001600160a01b0316036140f05760405162461bcd60e51b815260206004820152601960248201527f4552433732313a20617070726f766520746f2063616c6c6572000000000000006044820152606401610991565b6001600160a01b03838116600081815260056020908152604080832094871680845294825291829020805460ff191686151590811790915591519182527f17307eab39ab6107e8899845ad3d59bd9653f200f220920489ca2b5937696c31910160405180910390a3505050565b61416884848461387b565b6141748484848461429b565b6119935760405162461bcd60e51b8152600401610991906152e0565b60008072184f03e93ff9f4daa797ed6e38ed64bf6a1f0160401b83106141cf5772184f03e93ff9f4daa797ed6e38ed64bf6a1f0160401b830492506040015b6d04ee2d6d415b85acef810000000083106141fb576d04ee2d6d415b85acef8100000000830492506020015b662386f26fc10000831061421957662386f26fc10000830492506010015b6305f5e1008310614231576305f5e100830492506008015b612710831061424557612710830492506004015b60648310614257576064830492506002015b600a83106109dd5760010192915050565b614272838361439c565b61427f600084848461429b565b610c565760405162461bcd60e51b8152600401610991906152e0565b60006001600160a01b0384163b1561439157604051630a85bd0160e11b81526001600160a01b0385169063150b7a02906142df903390899088908890600401615332565b6020604051808303816000875af192505050801561431a575060408051601f3d908101601f191682019092526143179181019061536f565b60015b614377573d808015614348576040519150601f19603f3d011682016040523d82523d6000602084013e61434d565b606091505b50805160000361436f5760405162461bcd60e51b8152600401610991906152e0565b805181602001fd5b6001600160e01b031916630a85bd0160e11b149050614087565b506001949350505050565b6001600160a01b0382166143f25760405162461bcd60e51b815260206004820181905260248201527f4552433732313a206d696e7420746f20746865207a65726f20616464726573736044820152606401610991565b6143fb81613682565b156144485760405162461bcd60e51b815260206004820152601c60248201527f4552433732313a20746f6b656e20616c7265616479206d696e746564000000006044820152606401610991565b614456600083836001613e0c565b61445f81613682565b156144ac5760405162461bcd60e51b815260206004820152601c60248201527f4552433732313a20746f6b656e20616c7265616479206d696e746564000000006044820152606401610991565b6001600160a01b038216600081815260036020908152604080832080546001019055848352600290915280822080546001600160a01b0319168417905551839291907fddf252ad1be2c89b69c2b068fc378daa952ba7f163c4a11628f55a4df523b3ef908290a45050565b60006020828403121561452957600080fd5b5035919050565b6001600160e01b0319811681146136fe57600080fd5b60006020828403121561455857600080fd5b8135612e3981614530565b60005b8381101561457e578181015183820152602001614566565b50506000910152565b6000815180845261459f816020860160208601614563565b601f01601f19169290920160200192915050565b602081526000612e396020830184614587565b80356001600160a01b03811681146145dd57600080fd5b919050565b600080604083850312156145f557600080fd5b6145fe836145c6565b946020939093013593505050565b600081518084526020808501945080840160005b8381101561463c57815187529582019590820190600101614620565b509495945050505050565b602081526000612e39602083018461460c565b634e487b7160e01b600052604160045260246000fd5b604051606081016001600160401b03811182821017156146925761469261465a565b60405290565b604051601f8201601f191681016001600160401b03811182821017156146c0576146c061465a565b604052919050565b60006001600160401b038211156146e1576146e161465a565b5060051b60200190565b60006001600160401b038311156147045761470461465a565b614717601f8401601f1916602001614698565b905082815283838301111561472b57600080fd5b828260208301376000602084830101529392505050565b600082601f83011261475357600080fd5b612e39838335602085016146eb565b600082601f83011261477357600080fd5b81356020614788614783836146c8565b614698565b82815260059290921b840181019181810190868411156147a757600080fd5b8286015b8481101561486c5780356001600160401b03808211156147cb5760008081fd5b908801906060828b03601f19018113156147e55760008081fd5b6147ed614670565b87840135838111156147ff5760008081fd5b61480d8d8a83880101614742565b825250604080850135848111156148245760008081fd5b6148328e8b83890101614742565b838b01525091840135918383111561484a5760008081fd5b6148588d8a85880101614742565b9082015286525050509183019183016147ab565b509695505050505050565b6000806040838503121561488a57600080fd5b82356001600160401b03808211156148a157600080fd5b818501915085601f8301126148b557600080fd5b813560206148c5614783836146c8565b82815260059290921b840181019181810190898411156148e457600080fd5b948201945b83861015614902578535825294820194908201906148e9565b9650508601359250508082111561491857600080fd5b5061492585828601614762565b9150509250929050565b60006020828403121561494157600080fd5b81356001600160401b0381111561495757600080fd5b61408784828501614742565b60006101008083526149778184018c614587565b90508960208401528281036040840152614991818a614587565b905082810360608401526149a58189614587565b905082810360808401526149b98188614587565b905082810360a08401526149cd8187614587565b905082810360c08401526149e18186614587565b91505082151560e08301529998505050505050505050565b600080600060608486031215614a0e57600080fd5b83356001600160401b03811115614a2457600080fd5b614a3086828701614742565b9660208601359650604090950135949350505050565b600080600060608486031215614a5b57600080fd5b614a64846145c6565b9250614a72602085016145c6565b9150604084013590509250925092565b60008060408385031215614a9557600080fd5b82356001600160401b03811115614aab57600080fd5b614ab785828601614742565b95602094909401359450505050565b60008060408385031215614ad957600080fd5b50508035926020909101359150565b600060208284031215614afa57600080fd5b612e39826145c6565b600080600060608486031215614b1857600080fd5b83356001600160401b0380821115614b2f57600080fd5b614b3b87838801614742565b9450602086013593506040860135915080821115614b5857600080fd5b50614b6586828701614742565b9150509250925092565b602081526000825160606020840152614b8b6080840182614587565b90506020840151601f1980858403016040860152614ba98383614587565b9250604086015191508085840301606086015250614bc78282614587565b95945050505050565b803580151581146145dd57600080fd5b60008060408385031215614bf357600080fd5b614bfc836145c6565b9150614c0a60208401614bd0565b90509250929050565b60008060008060808587031215614c2957600080fd5b614c32856145c6565b9350614c40602086016145c6565b92506040850135915060608501356001600160401b03811115614c6257600080fd5b8501601f81018713614c7357600080fd5b614c82878235602084016146eb565b91505092959194509250565b60008060408385031215614ca157600080fd5b614caa836145c6565b9150614c0a602084016145c6565b600080600080600080600080610100898b031215614cd557600080fd5b88356001600160401b0380821115614cec57600080fd5b614cf88c838d01614742565b995060208b0135985060408b0135915080821115614d1557600080fd5b614d218c838d01614742565b975060608b0135965060808b0135915080821115614d3e57600080fd5b614d4a8c838d01614742565b955060a08b0135915080821115614d6057600080fd5b614d6c8c838d01614742565b945060c08b0135915080821115614d8257600080fd5b50614d8f8b828c01614762565b925050614d9e60e08a01614bd0565b90509295985092959890939650565b602080825260149082015273151bdad95b88191bd95cc81b9bdd08195e1a5cdd60621b604082015260600190565b600181811c90821680614def57607f821691505b602082108103614e0f57634e487b7160e01b600052602260045260246000fd5b50919050565b60008251614e27818460208701614563565b9190910192915050565b634e487b7160e01b600052601160045260246000fd5b600060018201614e5957614e59614e31565b5060010190565b634e487b7160e01b600052603260045260246000fd5b601f821115610c5657600081815260208120601f850160051c81016020861015614e9d5750805b601f850160051c820191505b81811015614ebc57828155600101614ea9565b505050505050565b81516001600160401b03811115614edd57614edd61465a565b614ef181614eeb8454614ddb565b84614e76565b602080601f831160018114614f265760008415614f0e5750858301515b600019600386901b1c1916600185901b178555614ebc565b600085815260208120601f198616915b82811015614f5557888601518255948401946001909101908401614f36565b5085821015614f735787850151600019600388901b60f8161c191681555b5050505050600190811b01905550565b602080825260139082015272151a58dad95d08185b1c9958591e481d5cd959606a1b604082015260600190565b60008154614fbd81614ddb565b60018281168015614fd55760018114614fea57615019565b60ff1984168752821515830287019450615019565b8560005260208060002060005b858110156150105781548a820152908401908201614ff7565b50505082870194505b5050505092915050565b6000612e398284614fb0565b60208082526021908201527f546f6b656e20494420646f6573206e6f74206d61746368207469636b657420496040820152601160fa1b606082015260800190565b6020808252602e908201527f5472616e7366657273206d75737420626520646f6e65207468726f756768207460408201526d6865206d61726b6574706c61636560901b606082015260800190565b6020808252600e908201526d125b9d985b1a59081d1a58dad95d60921b604082015260600190565b6060815260006150f96060830186614587565b602083019490945250901515604090910152919050565b818103818111156109dd576109dd614e31565b80820281158282048414176109dd576109dd614e31565b60608152600061514d6060830186614587565b6001600160a01b039490941660208301525060400152919050565b6000835161517a818460208801614563565b83519083019061518e818360208801614563565b01949350505050565b600081518084526020808501808196508360051b8101915082860160005b858110156151df5782840389526151cd848351614587565b988501989350908401906001016151b5565b5091979650505050505050565b60a0815260006151ff60a0830188614587565b8281036020840152615211818861460c565b905082810360408401526152258187615197565b905082810360608401526152398186615197565b91505082151560808301529695505050505050565b60208082526025908201527f4552433732313a207472616e736665722066726f6d20696e636f72726563742060408201526437bbb732b960d91b606082015260800190565b6020808252602d908201527f4552433732313a2063616c6c6572206973206e6f7420746f6b656e206f776e6560408201526c1c881bdc88185c1c1c9bdd9959609a1b606082015260800190565b60208082526032908201527f4552433732313a207472616e7366657220746f206e6f6e20455243373231526560408201527131b2b4bb32b91034b6b83632b6b2b73a32b960711b606082015260800190565b6001600160a01b038581168252841660208201526040810183905260806060820181905260009061536590830184614587565b9695505050505050565b60006020828403121561538157600080fd5b8151612e398161453056fea264697066735822122065068a3e00fedc9162547f68dfc1da8b60041dbda3c40aef99ec34ed4d7db18864736f6c63430008130033",
  "immutableReferences": {},
  "source": "// SPDX-License-Identifier: MIT\r\npragma solidity ^0.8.0;\r\n\r\nimport \"@openzeppelin/contracts/token/ERC721/ERC721.sol\";\r\nimport \"@openzeppelin/contracts/utils/Counters.sol\";\r\nimport \"@openzeppelin/contracts/utils/Strings.sol\";\r\nimport \"@openzeppelin/contracts/utils/Base64.sol\";\r\n\r\ncontract Tickets is ERC721 {\r\n    using Counters for Counters.Counter;\r\n    using Strings for uint256;\r\n\r\n    Counters.Counter private _tokenIds;\r\n\r\n    struct TicketMetadata {\r\n        string eventName;\r\n        uint256 eventDate;\r\n        string ticketType;\r\n        string eventVenue;\r\n        string metadataURI;\r\n        string qrCodeURI;\r\n        string verificationHash;\r\n        bool isTransferrable;\r\n    }\r\n\r\n    struct TicketSales {\r\n        uint256 price;\r\n        address owner;\r\n        bool isSold;\r\n        address currentOwner;\r\n        uint256 mintedQuantity;\r\n        uint256 resalePrice;\r\n    }\r\n\r\n    struct BatchTicketData {\r\n        string metadataURI;\r\n        string qrCodeURI;\r\n        string verificationHash;\r\n    }\r\n\r\n    struct TicketUsage {\r\n        bool isUsed;\r\n        uint256 usedTime;\r\n        address usedBy;\r\n    }\r\n\r\n    mapping(string => TicketMetadata) public ticketMetadata;\r\n    mapping(string => TicketSales) public ticketSales;\r\n    mapping(uint256 => string) public tokenIdToTicketId;\r\n    mapping(string => bool) private usedQRCodes;\r\n    mapping(string => bool) private usedVerificationHashes;\r\n    mapping(uint256 => string) private tokenURIs;\r\n    mapping(uint256 => BatchTicketData) private batchTokenData;\r\n    mapping(uint256 => TicketUsage) public ticketUsage;\r\n    mapping(uint256 => bool) private _hasBeenPurchased;\r\n    \r\n    address public contractOwner;\r\n\r\n    event TicketCreated(string ticketId, uint256[] tokenIds, string[] metadataURIs, string[] qrCodeURIs, bool isTransferrable);\r\n    event TicketPurchased(string ticketId, address buyer, uint256 tokenId);\r\n    event TicketUsed(string ticketId, uint256 tokenId, string verificationHash);\r\n    event TicketVerified(string ticketId, uint256 tokenId, bool isValid);\r\n    event TicketValidated(uint256 indexed tokenId, address indexed user, uint256 timestamp);\r\n    event TicketListedForResale(uint256 tokenId, uint256 price, address seller);\r\n    event TicketResaleCanceled(uint256 tokenId, address seller);\r\n    event TicketResold(uint256 tokenId, address seller, address buyer, uint256 price);\r\n\r\n    constructor() ERC721(\"EventTicket\", \"EVTK\") {\r\n        contractOwner = msg.sender;\r\n    }\r\n\r\n    modifier onlyOwner() {\r\n        require(msg.sender == contractOwner, \"Only contract owner\");\r\n        _;\r\n    }\r\n\r\n    function initializeTicket(\r\n        string memory ticketId,\r\n        uint256 price,\r\n        string memory eventName,\r\n        uint256 eventDate,\r\n        string memory ticketType,\r\n        string memory eventVenue,\r\n        bool isTransferrable\r\n    ) internal {\r\n        if (bytes(ticketMetadata[ticketId].eventName).length == 0) {\r\n            ticketMetadata[ticketId] = TicketMetadata({\r\n                eventName: eventName,\r\n                eventDate: eventDate,\r\n                ticketType: ticketType,\r\n                eventVenue: eventVenue,\r\n                metadataURI: \"\",\r\n                qrCodeURI: \"\",\r\n                verificationHash: \"\",\r\n                isTransferrable: isTransferrable\r\n            });\r\n\r\n            ticketSales[ticketId] = TicketSales({\r\n                price: price,\r\n                owner: msg.sender,\r\n                isSold: false,\r\n                currentOwner: msg.sender,\r\n                mintedQuantity: 0,\r\n                resalePrice: 0\r\n            });\r\n        }\r\n    }\r\n\r\n    function createTicketsInBatch(\r\n        string memory ticketId,\r\n        uint256 price,\r\n        string memory eventName,\r\n        uint256 eventDate,\r\n        string memory ticketType,\r\n        string memory eventVenue,\r\n        BatchTicketData[] memory batchData,\r\n        bool isTransferrable\r\n    ) public onlyOwner returns (uint256[] memory) {\r\n        require(bytes(ticketMetadata[ticketId].eventName).length == 0, \"Ticket already exists\");\r\n        require(price > 0, \"Invalid price\");\r\n        require(batchData.length > 0, \"No ticket data provided\");\r\n        \r\n        initializeTicket(\r\n            ticketId,\r\n            price,\r\n            eventName,\r\n            eventDate,\r\n            ticketType,\r\n            eventVenue,\r\n            isTransferrable\r\n        );\r\n        \r\n        uint256[] memory newTokenIds = new uint256[](batchData.length);\r\n        string[] memory metadataURIs = new string[](batchData.length);\r\n        string[] memory qrCodeURIs = new string[](batchData.length);\r\n        \r\n        for (uint256 i = 0; i < batchData.length; i++) {\r\n            _tokenIds.increment();\r\n            uint256 newTokenId = _tokenIds.current();\r\n            \r\n            tokenIdToTicketId[newTokenId] = ticketId;\r\n            batchTokenData[newTokenId] = BatchTicketData({\r\n                metadataURI: \"\",\r\n                qrCodeURI: \"\",\r\n                verificationHash: \"\"\r\n            });\r\n            _safeMint(msg.sender, newTokenId);\r\n            \r\n            tokenCurrentOwner[newTokenId] = msg.sender;\r\n            \r\n            ticketSales[ticketId].mintedQuantity++;\r\n            newTokenIds[i] = newTokenId;\r\n            metadataURIs[i] = \"\";\r\n            qrCodeURIs[i] = \"\";\r\n        }\r\n\r\n        emit TicketCreated(\r\n            ticketId,\r\n            newTokenIds,\r\n            metadataURIs,\r\n            qrCodeURIs,\r\n            isTransferrable\r\n        );\r\n        \r\n        return newTokenIds;\r\n    }\r\n\r\n    function verifyTicket(\r\n        string memory ticketId, \r\n        uint256 tokenId, \r\n        string memory verificationHash\r\n    ) public returns (bool) {\r\n        require(_exists(tokenId), \"Invalid token\");\r\n        require(bytes(ticketMetadata[ticketId].eventName).length > 0, \"Invalid ticket\");\r\n        \r\n        bool isValid = keccak256(abi.encodePacked(batchTokenData[tokenId].verificationHash)) == \r\n                      keccak256(abi.encodePacked(verificationHash));\r\n        \r\n        emit TicketVerified(ticketId, tokenId, isValid);\r\n        return isValid;\r\n    }\r\n\r\n    function getTicketBatchData(uint256 tokenId) public view returns (BatchTicketData memory) {\r\n        require(_exists(tokenId), \"Token does not exist\");\r\n        return batchTokenData[tokenId];\r\n    }\r\n\r\n    function setTicketForResale(string memory ticketId, uint256 tokenId, uint256 newPrice) public {\r\n        require(_exists(tokenId), \"Token does not exist\");\r\n        require(ownerOf(tokenId) == msg.sender, \"Not token owner\");\r\n        require(keccak256(bytes(tokenIdToTicketId[tokenId])) == keccak256(bytes(ticketId)), \r\n            \"Token ID does not match ticket ID\");\r\n        require(!ticketUsage[tokenId].isUsed, \"Ticket already used\");\r\n        \r\n        require(newPrice <= ticketSales[ticketId].price, \"Resale price cannot exceed original price\");\r\n        \r\n        ticketSales[ticketId].resalePrice = newPrice;\r\n        ticketSales[ticketId].isSold = false;\r\n    }\r\n\r\n    function buyTicket(string memory ticketId, uint256 quantity) public payable {\r\n        require(bytes(ticketMetadata[ticketId].eventName).length >  0, \"Invalid ticket\");\r\n        require(!ticketSales[ticketId].isSold, \"Sold out\");\r\n        require(msg.sender != ticketSales[ticketId].currentOwner, \"Owner cannot buy\");\r\n        require(quantity > 0, \"Invalid quantity\");\r\n        \r\n        uint256 availableTickets = ticketSales[ticketId].mintedQuantity - getNumberOfSoldTokens(ticketId);\r\n        require(availableTickets >= quantity, \"Not enough tickets available\");\r\n\r\n        uint256[] memory purchasedTokenIds = new uint256[](quantity);\r\n        uint256 foundCount = 0;\r\n        uint256 totalTokens = _tokenIds.current();\r\n\r\n        for (uint256 i = 1; i <= totalTokens && foundCount < quantity; i++) {\r\n            if (keccak256(bytes(tokenIdToTicketId[i])) == keccak256(bytes(ticketId))) {\r\n                if (!isTokenSold(i)) {\r\n                    purchasedTokenIds[foundCount] = i;\r\n                    foundCount++;\r\n                }\r\n            }\r\n        }\r\n\r\n        require(foundCount == quantity, \"Not enough available tickets\");\r\n\r\n        uint256 priceToUse = ticketSales[ticketId].resalePrice > 0 ? \r\n            ticketSales[ticketId].resalePrice : \r\n            ticketSales[ticketId].price;\r\n\r\n        uint256 totalPayment = priceToUse * quantity;\r\n        require(msg.value >= totalPayment, \"Insufficient payment\");\r\n\r\n        address previousOwner = ticketSales[ticketId].owner;\r\n\r\n        for (uint256 i = 0; i < quantity; i++) {\r\n            uint256 tokenId = purchasedTokenIds[i];\r\n            \r\n            _approvedMarketplaceTransfer[tokenId] = true;\r\n            \r\n            _approve(msg.sender, tokenId);\r\n            _transfer(previousOwner, msg.sender, tokenId);\r\n            \r\n            _hasBeenPurchased[tokenId] = true;\r\n            _approvedMarketplaceTransfer[tokenId] = false;\r\n\r\n            emit TicketPurchased(ticketId, msg.sender, tokenId);\r\n        }\r\n\r\n        payable(previousOwner).transfer(totalPayment);\r\n    }\r\n\r\n    function isTokenSold(uint256 tokenId) internal view returns (bool) {\r\n        return ownerOf(tokenId) != ticketSales[tokenIdToTicketId[tokenId]].owner;\r\n    }\r\n\r\n    function markTokenAsSold(uint256 tokenId) internal {\r\n        // No need to set a global sold flag anymore, \r\n        // ownership transfer is enough to track sold status\r\n    }\r\n\r\n    function getNumberOfSoldTokens(string memory ticketId) internal view returns (uint256) {\r\n        uint256 soldCount = 0;\r\n        uint256 totalTokens = _tokenIds.current();\r\n        \r\n        for (uint256 i = 1; i <= totalTokens; i++) {\r\n            if (keccak256(bytes(tokenIdToTicketId[i])) == keccak256(bytes(ticketId))) {\r\n                if (isTokenSold(i)) {\r\n                    soldCount++;\r\n                }\r\n            }\r\n        }\r\n        \r\n        return soldCount;\r\n    }\r\n\r\n    function getTicketDetails(string memory ticketId) public view returns (TicketSales memory) {\r\n        require(bytes(ticketMetadata[ticketId].eventName).length > 0, \"Does not have ticket\");\r\n        return ticketSales[ticketId];\r\n    }\r\n\r\n    function validateAndUseTicket(string memory ticketId, uint256 tokenId) public returns (bool) {\r\n        require(_exists(tokenId), \"Token does not exist\");\r\n        require(ownerOf(tokenId) == msg.sender, \"Not ticket owner\");\r\n        \r\n        require(bytes(ticketMetadata[ticketId].eventName).length > 0, \"Invalid ticket\");\r\n        \r\n        require(keccak256(bytes(tokenIdToTicketId[tokenId])) == keccak256(bytes(ticketId)), \r\n            \"Token ID does not match ticket ID\");\r\n        \r\n        require(!ticketUsage[tokenId].isUsed, \"This specific ticket has already been used\");\r\n\r\n        ticketUsage[tokenId] = TicketUsage({\r\n            isUsed: true,\r\n            usedTime: block.timestamp,\r\n            usedBy: msg.sender\r\n        });\r\n\r\n        emit TicketValidated(tokenId, msg.sender, block.timestamp);\r\n        return true;\r\n    }\r\n\r\n    function getTokenUsageStatus(uint256 tokenId) public view returns (TicketUsage memory) {\r\n        require(_exists(tokenId), \"Token does not exist\");\r\n        return ticketUsage[tokenId];\r\n    }\r\n\r\n    function isTokenValidForUse(string memory ticketId, uint256 tokenId) public view returns (bool) {\r\n        if (!_exists(tokenId)) return false;\r\n        if (bytes(ticketMetadata[ticketId].eventName).length == 0) return false;\r\n        if (keccak256(bytes(tokenIdToTicketId[tokenId])) != keccak256(bytes(ticketId))) return false;\r\n        if (ticketUsage[tokenId].isUsed) return false;\r\n        return true;\r\n    }\r\n\r\n    function getTicketUsageDetails(uint256 tokenId) public view returns (TicketUsage memory) {\r\n        require(_exists(tokenId), \"Token does not exist\");\r\n        return ticketUsage[tokenId];\r\n    }\r\n\r\n    struct ResaleListing {\r\n        uint256 tokenId;\r\n        uint256 price;\r\n        bool isActive;\r\n        address seller;\r\n    }\r\n\r\n    mapping(uint256 => ResaleListing) public resaleListings;\r\n    mapping(address => uint256[]) public userListings;\r\n\r\n    function listTicketForResale(uint256 tokenId, uint256 price) public {\r\n        require(_exists(tokenId), \"Token does not exist\");\r\n        require(ownerOf(tokenId) == msg.sender, \"Not token owner\");\r\n        require(!ticketUsage[tokenId].isUsed, \"Ticket already used\");\r\n        \r\n        string memory ticketId = tokenIdToTicketId[tokenId];\r\n        require(\r\n            ticketMetadata[ticketId].isTransferrable || !_hasBeenPurchased[tokenId],\r\n            \"This ticket cannot be listed for resale after initial purchase\"\r\n        );\r\n\r\n        uint256 originalPrice = ticketSales[ticketId].price;\r\n        require(price <= originalPrice, \"Price exceeds original\");\r\n        require(!resaleListings[tokenId].isActive, \"Already listed\");\r\n\r\n        resaleListings[tokenId] = ResaleListing({\r\n            tokenId: tokenId,\r\n            price: price,\r\n            isActive: true,\r\n            seller: msg.sender\r\n        });\r\n        \r\n        userListings[msg.sender].push(tokenId);\r\n        \r\n        emit TicketListedForResale(tokenId, price, msg.sender);\r\n    }\r\n\r\n    function cancelResaleListing(uint256 tokenId) public {\r\n        require(resaleListings[tokenId].isActive, \"Not listed\");\r\n        require(resaleListings[tokenId].seller == msg.sender, \"Not seller\");\r\n        \r\n        resaleListings[tokenId].isActive = false;\r\n        \r\n        emit TicketResaleCanceled(tokenId, msg.sender);\r\n    }\r\n\r\n    function buyResaleTicket(uint256 tokenId) public payable {\r\n        ResaleListing memory listing = resaleListings[tokenId];\r\n        require(listing.isActive, \"Not listed for resale\");\r\n        require(msg.sender != listing.seller, \"Cannot buy own ticket\");\r\n        require(msg.value >= listing.price, \"Insufficient payment\");\r\n        require(!ticketUsage[tokenId].isUsed, \"Ticket already used\");\r\n\r\n        string memory ticketId = tokenIdToTicketId[tokenId];\r\n        require(\r\n            ticketMetadata[ticketId].isTransferrable || !_hasBeenPurchased[tokenId],\r\n            \"This ticket cannot be transferred after initial purchase\"\r\n        );\r\n\r\n        address seller = listing.seller;\r\n        uint256 price = listing.price;\r\n\r\n        _approvedMarketplaceTransfer[tokenId] = true;\r\n        \r\n        _approve(msg.sender, tokenId);\r\n        _transfer(seller, msg.sender, tokenId);\r\n        \r\n        _hasBeenPurchased[tokenId] = true;\r\n        _approvedMarketplaceTransfer[tokenId] = false;\r\n\r\n        resaleListings[tokenId].isActive = false;\r\n\r\n        tokenCurrentOwner[tokenId] = msg.sender;\r\n\r\n        payable(seller).transfer(price);\r\n\r\n        emit TicketResold(tokenId, seller, msg.sender, price);\r\n    }\r\n\r\n    function getActiveResaleListings() public view returns (uint256[] memory) {\r\n        uint256 totalTokens = _tokenIds.current();\r\n        uint256 activeCount = 0;\r\n        \r\n        for (uint256 i = 1; i <= totalTokens; i++) {\r\n            if (resaleListings[i].isActive) {\r\n                activeCount++;\r\n            }\r\n        }\r\n        \r\n        uint256[] memory activeListings = new uint256[](activeCount);\r\n        uint256 currentIndex = 0;\r\n        \r\n        for (uint256 i = 1; i <= totalTokens && currentIndex < activeCount; i++) {\r\n            if (resaleListings[i].isActive) {\r\n                activeListings[currentIndex] = i;\r\n                currentIndex++;\r\n            }\r\n        }\r\n        \r\n        return activeListings;\r\n    }\r\n\r\n    function getResaleListingDetails(uint256 tokenId) public view returns (ResaleListing memory) {\r\n        require(resaleListings[tokenId].isActive, \"Not listed for resale\");\r\n        return resaleListings[tokenId];\r\n    }\r\n\r\n    function updateBatchMetadata(\r\n        uint256[] memory tokenIds,\r\n        BatchTicketData[] memory batchData\r\n    ) public onlyOwner {\r\n        require(tokenIds.length == batchData.length, \"Arrays length mismatch\");\r\n        \r\n        for (uint256 i = 0; i < tokenIds.length; i++) {\r\n            require(_exists(tokenIds[i]), \"Token does not exist\");\r\n            \r\n            batchTokenData[tokenIds[i]] = batchData[i];\r\n            tokenURIs[tokenIds[i]] = batchData[i].metadataURI;\r\n        }\r\n    }\r\n\r\n    mapping(uint256 => address) public tokenCurrentOwner;\r\n\r\n    function getTokenCurrentOwner(uint256 tokenId) public view returns (address) {\r\n        require(_exists(tokenId), \"Token does not exist\");\r\n        return tokenCurrentOwner[tokenId] != address(0) ? tokenCurrentOwner[tokenId] : ownerOf(tokenId);\r\n    }\r\n\r\n    function _beforeTokenTransfer(\r\n        address from,\r\n        address to,\r\n        uint256 tokenId,\r\n        uint256 batchSize\r\n    ) internal virtual override {\r\n        super._beforeTokenTransfer(from, to, tokenId, batchSize);\r\n        \r\n        if (from != address(0) && to != address(0)) {\r\n            string memory ticketId = tokenIdToTicketId[tokenId];\r\n            \r\n            require(bytes(ticketMetadata[ticketId].eventName).length > 0, \"Invalid ticket\");\r\n            \r\n            if (!ticketMetadata[ticketId].isTransferrable && _hasBeenPurchased[tokenId]) {\r\n                require(\r\n                    _approvedMarketplaceTransfer[tokenId] ||\r\n                    msg.sender == contractOwner,\r\n                    \"Non-transferrable tickets cannot be transferred directly\"\r\n                );\r\n            }\r\n            \r\n            _approvedMarketplaceTransfer[tokenId] = false;\r\n        }\r\n    }\r\n\r\n    function isTicketTransferrable(uint256 tokenId) public view returns (bool) {\r\n        require(_exists(tokenId), \"Token does not exist\");\r\n        string memory ticketId = tokenIdToTicketId[tokenId];\r\n        return ticketMetadata[ticketId].isTransferrable;\r\n    }\r\n\r\n    modifier onlyMarketplace() {\r\n        require(\r\n            msg.sender == contractOwner || \r\n            msg.sender == address(this), \r\n            \"Only marketplace can perform this operation\"\r\n        );\r\n        _;\r\n    }\r\n\r\n    mapping(uint256 => bool) private _approvedMarketplaceTransfer;\r\n\r\n    function transferFrom(\r\n        address from,\r\n        address to,\r\n        uint256 tokenId\r\n    ) public virtual override {\r\n        string memory ticketId = tokenIdToTicketId[tokenId];\r\n        require(\r\n            ticketMetadata[ticketId].isTransferrable || \r\n            !_hasBeenPurchased[tokenId] ||\r\n            _approvedMarketplaceTransfer[tokenId] ||\r\n            msg.sender == contractOwner,\r\n            \"Transfers must be done through the marketplace\"\r\n        );\r\n        super.transferFrom(from, to, tokenId);\r\n    }\r\n\r\n    function safeTransferFrom(\r\n        address from,\r\n        address to,\r\n        uint256 tokenId\r\n    ) public virtual override {\r\n        string memory ticketId = tokenIdToTicketId[tokenId];\r\n        require(\r\n            ticketMetadata[ticketId].isTransferrable || \r\n            !_hasBeenPurchased[tokenId] ||\r\n            _approvedMarketplaceTransfer[tokenId] ||\r\n            msg.sender == contractOwner,\r\n            \"Transfers must be done through the marketplace\"\r\n        );\r\n        super.safeTransferFrom(from, to, tokenId);\r\n    }\r\n\r\n    function safeTransferFrom(\r\n        address from,\r\n        address to,\r\n        uint256 tokenId,\r\n        bytes memory data\r\n    ) public virtual override {\r\n        string memory ticketId = tokenIdToTicketId[tokenId];\r\n        require(\r\n            ticketMetadata[ticketId].isTransferrable || \r\n            !_hasBeenPurchased[tokenId] ||\r\n            _approvedMarketplaceTransfer[tokenId] ||\r\n            msg.sender == contractOwner,\r\n            \"Transfers must be done through the marketplace\"\r\n        );\r\n        super.safeTransferFrom(from, to, tokenId, data);\r\n    }\r\n\r\n    function approve(address to, uint256 tokenId) public virtual override {\r\n        string memory ticketId = tokenIdToTicketId[tokenId];\r\n        require(\r\n            ticketMetadata[ticketId].isTransferrable || \r\n            !_hasBeenPurchased[tokenId] ||\r\n            msg.sender == contractOwner,\r\n            \"Non-transferrable tickets cannot be approved for transfer\"\r\n        );\r\n        super.approve(to, tokenId);\r\n    }\r\n\r\n    function setApprovalForAll(address operator, bool approved) public virtual override {\r\n        require(\r\n            msg.sender == contractOwner || \r\n            approved == false,  // Always allow removing approvals\r\n            \"Cannot set approval for all on non-transferrable tickets\"\r\n        );\r\n        super.setApprovalForAll(operator, approved);\r\n    }\r\n}",
  "sourcePath": "D:\\NFT-ticket\\contracts\\Tickets.sol",
  "compiler": {
    "name": "solc",
    "version": "0.8.19+commit.7dd6d404.Emscripten.clang"
  },
  "schemaVersion": "3.4.16",
  "updatedAt": "2024-12-05T06:13:13.796Z",
  "networkType": "ethereum",
  "devdoc": {
    "events": {
      "Approval(address,address,uint256)": {
        "details": "Emitted when `owner` enables `approved` to manage the `tokenId` token."
      },
      "ApprovalForAll(address,address,bool)": {
        "details": "Emitted when `owner` enables or disables (`approved`) `operator` to manage all of its assets."
      },
      "Transfer(address,address,uint256)": {
        "details": "Emitted when `tokenId` token is transferred from `from` to `to`."
      }
    },
    "kind": "dev",
    "methods": {
      "approve(address,uint256)": {
        "details": "See {IERC721-approve}."
      },
      "balanceOf(address)": {
        "details": "See {IERC721-balanceOf}."
      },
      "getApproved(uint256)": {
        "details": "See {IERC721-getApproved}."
      },
      "isApprovedForAll(address,address)": {
        "details": "See {IERC721-isApprovedForAll}."
      },
      "name()": {
        "details": "See {IERC721Metadata-name}."
      },
      "ownerOf(uint256)": {
        "details": "See {IERC721-ownerOf}."
      },
      "safeTransferFrom(address,address,uint256)": {
        "details": "See {IERC721-safeTransferFrom}."
      },
      "safeTransferFrom(address,address,uint256,bytes)": {
        "details": "See {IERC721-safeTransferFrom}."
      },
      "setApprovalForAll(address,bool)": {
        "details": "See {IERC721-setApprovalForAll}."
      },
      "supportsInterface(bytes4)": {
        "details": "See {IERC165-supportsInterface}."
      },
      "symbol()": {
        "details": "See {IERC721Metadata-symbol}."
      },
      "tokenURI(uint256)": {
        "details": "See {IERC721Metadata-tokenURI}."
      },
      "transferFrom(address,address,uint256)": {
        "details": "See {IERC721-transferFrom}."
      }
    },
    "version": 1
  },
  "userdoc": {
    "kind": "user",
    "methods": {},
    "version": 1
  }
}