{
  "contractName": "TicketsBase",
  "abi": [
    {
      "inputs": [],
      "stateMutability": "nonpayable",
      "type": "constructor"
    },
    {
      "anonymous": false,
      "inputs": [
        {
          "indexed": true,
          "internalType": "address",
          "name": "owner",
          "type": "address"
        },
        {
          "indexed": true,
          "internalType": "address",
          "name": "approved",
          "type": "address"
        },
        {
          "indexed": true,
          "internalType": "uint256",
          "name": "tokenId",
          "type": "uint256"
        }
      ],
      "name": "Approval",
      "type": "event"
    },
    {
      "anonymous": false,
      "inputs": [
        {
          "indexed": true,
          "internalType": "address",
          "name": "owner",
          "type": "address"
        },
        {
          "indexed": true,
          "internalType": "address",
          "name": "operator",
          "type": "address"
        },
        {
          "indexed": false,
          "internalType": "bool",
          "name": "approved",
          "type": "bool"
        }
      ],
      "name": "ApprovalForAll",
      "type": "event"
    },
    {
      "anonymous": false,
      "inputs": [
        {
          "indexed": false,
          "internalType": "string",
          "name": "ticketId",
          "type": "string"
        },
        {
          "indexed": false,
          "internalType": "uint256",
          "name": "tokenId",
          "type": "uint256"
        },
        {
          "indexed": false,
          "internalType": "string",
          "name": "metadataURI",
          "type": "string"
        },
        {
          "indexed": false,
          "internalType": "string",
          "name": "qrCodeURI",
          "type": "string"
        }
      ],
      "name": "TicketCreated",
      "type": "event"
    },
    {
      "anonymous": false,
      "inputs": [
        {
          "indexed": false,
          "internalType": "string",
          "name": "ticketId",
          "type": "string"
        },
        {
          "indexed": false,
          "internalType": "address",
          "name": "buyer",
          "type": "address"
        },
        {
          "indexed": false,
          "internalType": "uint256",
          "name": "tokenId",
          "type": "uint256"
        }
      ],
      "name": "TicketPurchased",
      "type": "event"
    },
    {
      "anonymous": false,
      "inputs": [
        {
          "indexed": true,
          "internalType": "address",
          "name": "from",
          "type": "address"
        },
        {
          "indexed": true,
          "internalType": "address",
          "name": "to",
          "type": "address"
        },
        {
          "indexed": true,
          "internalType": "uint256",
          "name": "tokenId",
          "type": "uint256"
        }
      ],
      "name": "Transfer",
      "type": "event"
    },
    {
      "inputs": [
        {
          "internalType": "address",
          "name": "to",
          "type": "address"
        },
        {
          "internalType": "uint256",
          "name": "tokenId",
          "type": "uint256"
        }
      ],
      "name": "approve",
      "outputs": [],
      "stateMutability": "nonpayable",
      "type": "function"
    },
    {
      "inputs": [
        {
          "internalType": "address",
          "name": "owner",
          "type": "address"
        }
      ],
      "name": "balanceOf",
      "outputs": [
        {
          "internalType": "uint256",
          "name": "",
          "type": "uint256"
        }
      ],
      "stateMutability": "view",
      "type": "function"
    },
    {
      "inputs": [],
      "name": "contractOwner",
      "outputs": [
        {
          "internalType": "address",
          "name": "",
          "type": "address"
        }
      ],
      "stateMutability": "view",
      "type": "function"
    },
    {
      "inputs": [
        {
          "internalType": "uint256",
          "name": "tokenId",
          "type": "uint256"
        }
      ],
      "name": "getApproved",
      "outputs": [
        {
          "internalType": "address",
          "name": "",
          "type": "address"
        }
      ],
      "stateMutability": "view",
      "type": "function"
    },
    {
      "inputs": [
        {
          "internalType": "address",
          "name": "owner",
          "type": "address"
        },
        {
          "internalType": "address",
          "name": "operator",
          "type": "address"
        }
      ],
      "name": "isApprovedForAll",
      "outputs": [
        {
          "internalType": "bool",
          "name": "",
          "type": "bool"
        }
      ],
      "stateMutability": "view",
      "type": "function"
    },
    {
      "inputs": [
        {
          "internalType": "uint256",
          "name": "",
          "type": "uint256"
        }
      ],
      "name": "isNonTransferable",
      "outputs": [
        {
          "internalType": "bool",
          "name": "",
          "type": "bool"
        }
      ],
      "stateMutability": "view",
      "type": "function"
    },
    {
      "inputs": [],
      "name": "name",
      "outputs": [
        {
          "internalType": "string",
          "name": "",
          "type": "string"
        }
      ],
      "stateMutability": "view",
      "type": "function"
    },
    {
      "inputs": [
        {
          "internalType": "uint256",
          "name": "tokenId",
          "type": "uint256"
        }
      ],
      "name": "ownerOf",
      "outputs": [
        {
          "internalType": "address",
          "name": "",
          "type": "address"
        }
      ],
      "stateMutability": "view",
      "type": "function"
    },
    {
      "inputs": [
        {
          "internalType": "address",
          "name": "from",
          "type": "address"
        },
        {
          "internalType": "address",
          "name": "to",
          "type": "address"
        },
        {
          "internalType": "uint256",
          "name": "tokenId",
          "type": "uint256"
        }
      ],
      "name": "safeTransferFrom",
      "outputs": [],
      "stateMutability": "nonpayable",
      "type": "function"
    },
    {
      "inputs": [
        {
          "internalType": "address",
          "name": "from",
          "type": "address"
        },
        {
          "internalType": "address",
          "name": "to",
          "type": "address"
        },
        {
          "internalType": "uint256",
          "name": "tokenId",
          "type": "uint256"
        },
        {
          "internalType": "bytes",
          "name": "data",
          "type": "bytes"
        }
      ],
      "name": "safeTransferFrom",
      "outputs": [],
      "stateMutability": "nonpayable",
      "type": "function"
    },
    {
      "inputs": [
        {
          "internalType": "address",
          "name": "operator",
          "type": "address"
        },
        {
          "internalType": "bool",
          "name": "approved",
          "type": "bool"
        }
      ],
      "name": "setApprovalForAll",
      "outputs": [],
      "stateMutability": "nonpayable",
      "type": "function"
    },
    {
      "inputs": [
        {
          "internalType": "bytes4",
          "name": "interfaceId",
          "type": "bytes4"
        }
      ],
      "name": "supportsInterface",
      "outputs": [
        {
          "internalType": "bool",
          "name": "",
          "type": "bool"
        }
      ],
      "stateMutability": "view",
      "type": "function"
    },
    {
      "inputs": [],
      "name": "symbol",
      "outputs": [
        {
          "internalType": "string",
          "name": "",
          "type": "string"
        }
      ],
      "stateMutability": "view",
      "type": "function"
    },
    {
      "inputs": [
        {
          "internalType": "string",
          "name": "",
          "type": "string"
        }
      ],
      "name": "ticketMetadata",
      "outputs": [
        {
          "internalType": "string",
          "name": "eventName",
          "type": "string"
        },
        {
          "internalType": "uint256",
          "name": "eventDate",
          "type": "uint256"
        },
        {
          "internalType": "string",
          "name": "ticketType",
          "type": "string"
        },
        {
          "internalType": "string",
          "name": "eventVenue",
          "type": "string"
        },
        {
          "internalType": "string",
          "name": "metadataURI",
          "type": "string"
        },
        {
          "internalType": "string",
          "name": "qrCodeURI",
          "type": "string"
        },
        {
          "internalType": "string",
          "name": "verificationHash",
          "type": "string"
        }
      ],
      "stateMutability": "view",
      "type": "function"
    },
    {
      "inputs": [
        {
          "internalType": "string",
          "name": "",
          "type": "string"
        }
      ],
      "name": "ticketSales",
      "outputs": [
        {
          "internalType": "uint256",
          "name": "price",
          "type": "uint256"
        },
        {
          "internalType": "address",
          "name": "owner",
          "type": "address"
        },
        {
          "internalType": "bool",
          "name": "isSold",
          "type": "bool"
        },
        {
          "internalType": "address",
          "name": "currentOwner",
          "type": "address"
        },
        {
          "internalType": "uint256",
          "name": "mintedQuantity",
          "type": "uint256"
        }
      ],
      "stateMutability": "view",
      "type": "function"
    },
    {
      "inputs": [
        {
          "internalType": "uint256",
          "name": "",
          "type": "uint256"
        }
      ],
      "name": "tokenIdToTicketId",
      "outputs": [
        {
          "internalType": "string",
          "name": "",
          "type": "string"
        }
      ],
      "stateMutability": "view",
      "type": "function"
    },
    {
      "inputs": [
        {
          "internalType": "uint256",
          "name": "tokenId",
          "type": "uint256"
        }
      ],
      "name": "tokenURI",
      "outputs": [
        {
          "internalType": "string",
          "name": "",
          "type": "string"
        }
      ],
      "stateMutability": "view",
      "type": "function"
    },
    {
      "inputs": [
        {
          "internalType": "address",
          "name": "from",
          "type": "address"
        },
        {
          "internalType": "address",
          "name": "to",
          "type": "address"
        },
        {
          "internalType": "uint256",
          "name": "tokenId",
          "type": "uint256"
        }
      ],
      "name": "transferFrom",
      "outputs": [],
      "stateMutability": "nonpayable",
      "type": "function"
    },
    {
      "inputs": [
        {
          "internalType": "string",
          "name": "ticketId",
          "type": "string"
        },
        {
          "internalType": "uint256",
          "name": "price",
          "type": "uint256"
        },
        {
          "internalType": "string",
          "name": "eventName",
          "type": "string"
        },
        {
          "internalType": "uint256",
          "name": "eventDate",
          "type": "uint256"
        },
        {
          "internalType": "string",
          "name": "ticketType",
          "type": "string"
        },
        {
          "internalType": "string",
          "name": "eventVenue",
          "type": "string"
        },
        {
          "components": [
            {
              "internalType": "string",
              "name": "metadataURI",
              "type": "string"
            },
            {
              "internalType": "string",
              "name": "qrCodeURI",
              "type": "string"
            },
            {
              "internalType": "string",
              "name": "verificationHash",
              "type": "string"
            },
            {
              "internalType": "bool",
              "name": "isNonTransferable",
              "type": "bool"
            }
          ],
          "internalType": "struct TicketsBase.BatchTicketData[]",
          "name": "batchData",
          "type": "tuple[]"
        }
      ],
      "name": "createTicketsInBatch",
      "outputs": [
        {
          "internalType": "uint256[]",
          "name": "",
          "type": "uint256[]"
        }
      ],
      "stateMutability": "nonpayable",
      "type": "function"
    },
    {
      "inputs": [
        {
          "internalType": "uint256",
          "name": "tokenId",
          "type": "uint256"
        }
      ],
      "name": "getTicketBatchData",
      "outputs": [
        {
          "components": [
            {
              "internalType": "string",
              "name": "metadataURI",
              "type": "string"
            },
            {
              "internalType": "string",
              "name": "qrCodeURI",
              "type": "string"
            },
            {
              "internalType": "string",
              "name": "verificationHash",
              "type": "string"
            },
            {
              "internalType": "bool",
              "name": "isNonTransferable",
              "type": "bool"
            }
          ],
          "internalType": "struct TicketsBase.BatchTicketData",
          "name": "",
          "type": "tuple"
        }
      ],
      "stateMutability": "view",
      "type": "function"
    },
    {
      "inputs": [
        {
          "internalType": "string",
          "name": "ticketId",
          "type": "string"
        },
        {
          "internalType": "uint256",
          "name": "quantity",
          "type": "uint256"
        }
      ],
      "name": "buyTicket",
      "outputs": [],
      "stateMutability": "payable",
      "type": "function"
    }
  ],
  "bytecode": "0x60806040523480156200001157600080fd5b506040518060400160405280600b81526020017f4576656e745469636b65740000000000000000000000000000000000000000008152506040518060400160405280600481526020017f4556544b0000000000000000000000000000000000000000000000000000000081525081600090816200008f919062000365565b508060019081620000a1919062000365565b50505033600d60006101000a81548173ffffffffffffffffffffffffffffffffffffffff021916908373ffffffffffffffffffffffffffffffffffffffff1602179055506200044c565b600081519050919050565b7f4e487b7100000000000000000000000000000000000000000000000000000000600052604160045260246000fd5b7f4e487b7100000000000000000000000000000000000000000000000000000000600052602260045260246000fd5b600060028204905060018216806200016d57607f821691505b60208210810362000183576200018262000125565b5b50919050565b60008190508160005260206000209050919050565b60006020601f8301049050919050565b600082821b905092915050565b600060088302620001ed7fffffffffffffffffffffffffffffffffffffffffffffffffffffffffffffffff82620001ae565b620001f98683620001ae565b95508019841693508086168417925050509392505050565b6000819050919050565b6000819050919050565b600062000246620002406200023a8462000211565b6200021b565b62000211565b9050919050565b6000819050919050565b620002628362000225565b6200027a62000271826200024d565b848454620001bb565b825550505050565b600090565b6200029162000282565b6200029e81848462000257565b505050565b5b81811015620002c657620002ba60008262000287565b600181019050620002a4565b5050565b601f8211156200031557620002df8162000189565b620002ea846200019e565b81016020851015620002fa578190505b6200031262000309856200019e565b830182620002a3565b50505b505050565b600082821c905092915050565b60006200033a600019846008026200031a565b1980831691505092915050565b600062000355838362000327565b9150826002028217905092915050565b6200037082620000eb565b67ffffffffffffffff8111156200038c576200038b620000f6565b5b62000398825462000154565b620003a5828285620002ca565b600060209050601f831160018114620003dd5760008415620003c8578287015190505b620003d4858262000347565b86555062000444565b601f198416620003ed8662000189565b60005b828110156200041757848901518255600182019150602085019450602081019050620003f0565b8683101562000437578489015162000433601f89168262000327565b8355505b6001600288020188555050505b505050505050565b614b0c806200045c6000396000f3fe60806040526004361061012a5760003560e01c806370a08231116100ab578063a7331ab11161006f578063a7331ab114610433578063b88d4fde14610470578063c87b56dd14610499578063ce606ee0146104d6578063e5cd721014610501578063e985e9c5146105425761012a565b806370a082311461034957806395d89b4114610386578063a02f5494146103b1578063a22cb465146103ee578063a28f161c146104175761012a565b80631abf4449116100f25780631abf44491461023a57806323b872dd1461027d57806342842e0e146102a657806356334ff9146102cf5780636352211e1461030c5761012a565b806301ffc9a71461012f57806306fdde031461016c578063081812fc14610197578063095ea7b3146101d45780630c22629f146101fd575b600080fd5b34801561013b57600080fd5b5061015660048036038101906101519190612ec7565b61057f565b6040516101639190612f0f565b60405180910390f35b34801561017857600080fd5b50610181610661565b60405161018e9190612fba565b60405180910390f35b3480156101a357600080fd5b506101be60048036038101906101b99190613012565b6106f3565b6040516101cb9190613080565b60405180910390f35b3480156101e057600080fd5b506101fb60048036038101906101f691906130c7565b610739565b005b34801561020957600080fd5b50610224600480360381019061021f9190613424565b610850565b6040516102319190613610565b60405180910390f35b34801561024657600080fd5b50610261600480360381019061025c9190613632565b610d14565b604051610274979695949392919061368a565b60405180910390f35b34801561028957600080fd5b506102a4600480360381019061029f9190613723565b61109c565b005b3480156102b257600080fd5b506102cd60048036038101906102c89190613723565b6110fc565b005b3480156102db57600080fd5b506102f660048036038101906102f19190613012565b61111c565b6040516103039190612fba565b60405180910390f35b34801561031857600080fd5b50610333600480360381019061032e9190613012565b6111bc565b6040516103409190613080565b60405180910390f35b34801561035557600080fd5b50610370600480360381019061036b9190613776565b611242565b60405161037d91906137a3565b60405180910390f35b34801561039257600080fd5b5061039b6112f9565b6040516103a89190612fba565b60405180910390f35b3480156103bd57600080fd5b506103d860048036038101906103d39190613012565b61138b565b6040516103e59190613888565b60405180910390f35b3480156103fa57600080fd5b50610415600480360381019061041091906138aa565b6115d1565b005b610431600480360381019061042c91906138ea565b6115e7565b005b34801561043f57600080fd5b5061045a60048036038101906104559190613012565b611a98565b6040516104679190612f0f565b60405180910390f35b34801561047c57600080fd5b50610497600480360381019061049291906139e7565b611ab8565b005b3480156104a557600080fd5b506104c060048036038101906104bb9190613012565b611b1a565b6040516104cd9190612fba565b60405180910390f35b3480156104e257600080fd5b506104eb611b82565b6040516104f89190613080565b60405180910390f35b34801561050d57600080fd5b5061052860048036038101906105239190613632565b611ba8565b604051610539959493929190613a6a565b60405180910390f35b34801561054e57600080fd5b5061056960048036038101906105649190613abd565b611c41565b6040516105769190612f0f565b60405180910390f35b60007f80ac58cd000000000000000000000000000000000000000000000000000000007bffffffffffffffffffffffffffffffffffffffffffffffffffffffff1916827bffffffffffffffffffffffffffffffffffffffffffffffffffffffff1916148061064a57507f5b5e139f000000000000000000000000000000000000000000000000000000007bffffffffffffffffffffffffffffffffffffffffffffffffffffffff1916827bffffffffffffffffffffffffffffffffffffffffffffffffffffffff1916145b8061065a575061065982611cd5565b5b9050919050565b60606000805461067090613b2c565b80601f016020809104026020016040519081016040528092919081815260200182805461069c90613b2c565b80156106e95780601f106106be576101008083540402835291602001916106e9565b820191906000526020600020905b8154815290600101906020018083116106cc57829003601f168201915b5050505050905090565b60006106fe82611d3f565b6004600083815260200190815260200160002060009054906101000a900473ffffffffffffffffffffffffffffffffffffffff169050919050565b6000610744826111bc565b90508073ffffffffffffffffffffffffffffffffffffffff168373ffffffffffffffffffffffffffffffffffffffff16036107b4576040517f08c379a00000000000000000000000000000000000000000000000000000000081526004016107ab90613bcf565b60405180910390fd5b8073ffffffffffffffffffffffffffffffffffffffff166107d3611d8a565b73ffffffffffffffffffffffffffffffffffffffff1614806108025750610801816107fc611d8a565b611c41565b5b610841576040517f08c379a000000000000000000000000000000000000000000000000000000000815260040161083890613c61565b60405180910390fd5b61084b8383611d92565b505050565b6060600d60009054906101000a900473ffffffffffffffffffffffffffffffffffffffff1673ffffffffffffffffffffffffffffffffffffffff163373ffffffffffffffffffffffffffffffffffffffff16146108e2576040517f08c379a00000000000000000000000000000000000000000000000000000000081526004016108d990613ccd565b60405180910390fd5b60006007896040516108f49190613d29565b9081526020016040518091039020600001805461091090613b2c565b905014610952576040517f08c379a000000000000000000000000000000000000000000000000000000000815260040161094990613d8c565b60405180910390fd5b600087118015610963575060008251115b6109a2576040517f08c379a000000000000000000000000000000000000000000000000000000000815260040161099990613df8565b60405180910390fd5b6109b0888888888888611e4b565b6000825167ffffffffffffffff8111156109cd576109cc613111565b5b6040519080825280602002602001820160405280156109fb5781602001602082028036833780820191505090505b50905060005b8351811015610d04576000848281518110610a1f57610a1e613e18565b5b60200260200101516000015151118015610a5857506000848281518110610a4957610a48613e18565b5b60200260200101516020015151115b8015610a8357506000848281518110610a7457610a73613e18565b5b60200260200101516040015151115b610ac2576040517f08c379a0000000000000000000000000000000000000000000000000000000008152600401610ab990613e93565b60405180910390fd5b610acc60066120d2565b6000610ad860066120e8565b90508a600960008381526020019081526020016000209081610afa919061405f565b50848281518110610b0e57610b0d613e18565b5b602002602001015160000151600a60008381526020019081526020016000209081610b39919061405f565b50848281518110610b4d57610b4c613e18565b5b6020026020010151600b60008381526020019081526020016000206000820151816000019081610b7d919061405f565b506020820151816001019081610b93919061405f565b506040820151816002019081610ba9919061405f565b5060608201518160030160006101000a81548160ff021916908315150217905550905050610bd733826120f6565b60088b604051610be79190613d29565b90815260200160405180910390206003016000815480929190610c0990614160565b919050555080838381518110610c2257610c21613e18565b5b602002602001018181525050848281518110610c4157610c40613e18565b5b602002602001015160600151600c600083815260200190815260200160002060006101000a81548160ff0219169083151502179055507f7f6a35aee386f9077e649b91e5cb8cc97b22b2be8ad4c8d3860303092842f16f8b82878581518110610cad57610cac613e18565b5b602002602001015160000151888681518110610ccc57610ccb613e18565b5b602002602001015160200151604051610ce894939291906141a8565b60405180910390a1508080610cfc90614160565b915050610a01565b5080915050979650505050505050565b600781805160208101820180518482526020830160208501208183528095505050505050600091509050806000018054610d4d90613b2c565b80601f0160208091040260200160405190810160405280929190818152602001828054610d7990613b2c565b8015610dc65780601f10610d9b57610100808354040283529160200191610dc6565b820191906000526020600020905b815481529060010190602001808311610da957829003601f168201915b505050505090806001015490806002018054610de190613b2c565b80601f0160208091040260200160405190810160405280929190818152602001828054610e0d90613b2c565b8015610e5a5780601f10610e2f57610100808354040283529160200191610e5a565b820191906000526020600020905b815481529060010190602001808311610e3d57829003601f168201915b505050505090806003018054610e6f90613b2c565b80601f0160208091040260200160405190810160405280929190818152602001828054610e9b90613b2c565b8015610ee85780601f10610ebd57610100808354040283529160200191610ee8565b820191906000526020600020905b815481529060010190602001808311610ecb57829003601f168201915b505050505090806004018054610efd90613b2c565b80601f0160208091040260200160405190810160405280929190818152602001828054610f2990613b2c565b8015610f765780601f10610f4b57610100808354040283529160200191610f76565b820191906000526020600020905b815481529060010190602001808311610f5957829003601f168201915b505050505090806005018054610f8b90613b2c565b80601f0160208091040260200160405190810160405280929190818152602001828054610fb790613b2c565b80156110045780601f10610fd957610100808354040283529160200191611004565b820191906000526020600020905b815481529060010190602001808311610fe757829003601f168201915b50505050509080600601805461101990613b2c565b80601f016020809104026020016040519081016040528092919081815260200182805461104590613b2c565b80156110925780601f1061106757610100808354040283529160200191611092565b820191906000526020600020905b81548152906001019060200180831161107557829003601f168201915b5050505050905087565b6110ad6110a7611d8a565b82612114565b6110ec576040517f08c379a00000000000000000000000000000000000000000000000000000000081526004016110e390614274565b60405180910390fd5b6110f78383836121a9565b505050565b61111783838360405180602001604052806000815250611ab8565b505050565b6009602052806000526040600020600091509050805461113b90613b2c565b80601f016020809104026020016040519081016040528092919081815260200182805461116790613b2c565b80156111b45780601f10611189576101008083540402835291602001916111b4565b820191906000526020600020905b81548152906001019060200180831161119757829003601f168201915b505050505081565b6000806111c8836124a2565b9050600073ffffffffffffffffffffffffffffffffffffffff168173ffffffffffffffffffffffffffffffffffffffff1603611239576040517f08c379a0000000000000000000000000000000000000000000000000000000008152600401611230906142e0565b60405180910390fd5b80915050919050565b60008073ffffffffffffffffffffffffffffffffffffffff168273ffffffffffffffffffffffffffffffffffffffff16036112b2576040517f08c379a00000000000000000000000000000000000000000000000000000000081526004016112a990614372565b60405180910390fd5b600360008373ffffffffffffffffffffffffffffffffffffffff1673ffffffffffffffffffffffffffffffffffffffff168152602001908152602001600020549050919050565b60606001805461130890613b2c565b80601f016020809104026020016040519081016040528092919081815260200182805461133490613b2c565b80156113815780601f1061135657610100808354040283529160200191611381565b820191906000526020600020905b81548152906001019060200180831161136457829003601f168201915b5050505050905090565b611393612e31565b61139c826124df565b6113db576040517f08c379a00000000000000000000000000000000000000000000000000000000081526004016113d2906143de565b60405180910390fd5b600b600083815260200190815260200160002060405180608001604052908160008201805461140990613b2c565b80601f016020809104026020016040519081016040528092919081815260200182805461143590613b2c565b80156114825780601f1061145757610100808354040283529160200191611482565b820191906000526020600020905b81548152906001019060200180831161146557829003601f168201915b5050505050815260200160018201805461149b90613b2c565b80601f01602080910402602001604051908101604052809291908181526020018280546114c790613b2c565b80156115145780601f106114e957610100808354040283529160200191611514565b820191906000526020600020905b8154815290600101906020018083116114f757829003601f168201915b5050505050815260200160028201805461152d90613b2c565b80601f016020809104026020016040519081016040528092919081815260200182805461155990613b2c565b80156115a65780601f1061157b576101008083540402835291602001916115a6565b820191906000526020600020905b81548152906001019060200180831161158957829003601f168201915b505050505081526020016003820160009054906101000a900460ff1615151515815250509050919050565b6115e36115dc611d8a565b8383612520565b5050565b60006007836040516115f99190613d29565b9081526020016040518091039020600001805461161590613b2c565b9050118015611650575060088260405161162f9190613d29565b908152602001604051809103902060010160149054906101000a900460ff16155b80156116c957506008826040516116679190613d29565b908152602001604051809103902060020160009054906101000a900473ffffffffffffffffffffffffffffffffffffffff1673ffffffffffffffffffffffffffffffffffffffff163373ffffffffffffffffffffffffffffffffffffffff1614155b80156116d55750600081115b611714576040517f08c379a000000000000000000000000000000000000000000000000000000000815260040161170b9061444a565b60405180910390fd5b60008167ffffffffffffffff8111156117305761172f613111565b5b60405190808252806020026020018201604052801561175e5781602001602082028036833780820191505090505b50905060008061176e60066120e8565b90506000600190505b81811115801561178657508483105b15611836578580519060200120600960008381526020019081526020016000206040516117b3919061450d565b604051809103902003611823576008866040516117d09190613d29565b908152602001604051809103902060010160149054906101000a900460ff16611822578084848151811061180757611806613e18565b5b602002602001018181525050828061181e90614160565b9350505b5b808061182e90614160565b915050611777565b50838214611879576040517f08c379a000000000000000000000000000000000000000000000000000000000815260040161187090614570565b60405180910390fd5b60005b848110156119f657600084828151811061189957611898613e18565b5b6020026020010151905060006008886040516118b59190613d29565b908152602001604051809103902060020160009054906101000a900473ffffffffffffffffffffffffffffffffffffffff1690508073ffffffffffffffffffffffffffffffffffffffff16611909836111bc565b73ffffffffffffffffffffffffffffffffffffffff161461195f576040517f08c379a0000000000000000000000000000000000000000000000000000000008152600401611956906145dc565b60405180910390fd5b6119693383611d92565b6119748133846121a9565b600c600083815260200190815260200160002060009054906101000a900460ff16156119a6576119a5600083611d92565b5b7fce08fd98daa74c33a6249863a5f31651283e7fdda7d778f77c5cb35ff59dd67f8833846040516119d9939291906145fc565b60405180910390a1505080806119ee90614160565b91505061187c565b5033600886604051611a089190613d29565b908152602001604051809103902060020160006101000a81548173ffffffffffffffffffffffffffffffffffffffff021916908373ffffffffffffffffffffffffffffffffffffffff1602179055506001600886604051611a699190613d29565b908152602001604051809103902060010160146101000a81548160ff0219169083151502179055505050505050565b600c6020528060005260406000206000915054906101000a900460ff1681565b611ac9611ac3611d8a565b83612114565b611b08576040517f08c379a0000000000000000000000000000000000000000000000000000000008152600401611aff90614274565b60405180910390fd5b611b148484848461268c565b50505050565b6060611b2582611d3f565b6000611b2f6126e8565b90506000815111611b4f5760405180602001604052806000815250611b7a565b80611b59846126ff565b604051602001611b6a92919061463a565b6040516020818303038152906040525b915050919050565b600d60009054906101000a900473ffffffffffffffffffffffffffffffffffffffff1681565b6008818051602081018201805184825260208301602085012081835280955050505050506000915090508060000154908060010160009054906101000a900473ffffffffffffffffffffffffffffffffffffffff16908060010160149054906101000a900460ff16908060020160009054906101000a900473ffffffffffffffffffffffffffffffffffffffff16908060030154905085565b6000600560008473ffffffffffffffffffffffffffffffffffffffff1673ffffffffffffffffffffffffffffffffffffffff16815260200190815260200160002060008373ffffffffffffffffffffffffffffffffffffffff1673ffffffffffffffffffffffffffffffffffffffff16815260200190815260200160002060009054906101000a900460ff16905092915050565b60007f01ffc9a7000000000000000000000000000000000000000000000000000000007bffffffffffffffffffffffffffffffffffffffffffffffffffffffff1916827bffffffffffffffffffffffffffffffffffffffffffffffffffffffff1916149050919050565b611d48816124df565b611d87576040517f08c379a0000000000000000000000000000000000000000000000000000000008152600401611d7e906142e0565b60405180910390fd5b50565b600033905090565b816004600083815260200190815260200160002060006101000a81548173ffffffffffffffffffffffffffffffffffffffff021916908373ffffffffffffffffffffffffffffffffffffffff160217905550808273ffffffffffffffffffffffffffffffffffffffff16611e05836111bc565b73ffffffffffffffffffffffffffffffffffffffff167f8c5be1e5ebec7d5bd14f71427d1e84f3dd0314c0f7b2291e5b200ac8c7c3b92560405160405180910390a45050565b6000600787604051611e5d9190613d29565b90815260200160405180910390206000018054611e7990613b2c565b9050036120ca576040518060e0016040528085815260200184815260200183815260200182815260200160405180602001604052806000815250815260200160405180602001604052806000815250815260200160405180602001604052806000815250815250600787604051611ef09190613d29565b90815260200160405180910390206000820151816000019081611f13919061405f565b50602082015181600101556040820151816002019081611f33919061405f565b506060820151816003019081611f49919061405f565b506080820151816004019081611f5f919061405f565b5060a0820151816005019081611f75919061405f565b5060c0820151816006019081611f8b919061405f565b509050506040518060a001604052808681526020013373ffffffffffffffffffffffffffffffffffffffff1681526020016000151581526020013373ffffffffffffffffffffffffffffffffffffffff1681526020016000815250600887604051611ff69190613d29565b90815260200160405180910390206000820151816000015560208201518160010160006101000a81548173ffffffffffffffffffffffffffffffffffffffff021916908373ffffffffffffffffffffffffffffffffffffffff16021790555060408201518160010160146101000a81548160ff02191690831515021790555060608201518160020160006101000a81548173ffffffffffffffffffffffffffffffffffffffff021916908373ffffffffffffffffffffffffffffffffffffffff160217905550608082015181600301559050505b505050505050565b6001816000016000828254019250508190555050565b600081600001549050919050565b6121108282604051806020016040528060008152506127cd565b5050565b600080612120836111bc565b90508073ffffffffffffffffffffffffffffffffffffffff168473ffffffffffffffffffffffffffffffffffffffff16148061216257506121618185611c41565b5b806121a057508373ffffffffffffffffffffffffffffffffffffffff16612188846106f3565b73ffffffffffffffffffffffffffffffffffffffff16145b91505092915050565b8273ffffffffffffffffffffffffffffffffffffffff166121c9826111bc565b73ffffffffffffffffffffffffffffffffffffffff161461221f576040517f08c379a0000000000000000000000000000000000000000000000000000000008152600401612216906146d0565b60405180910390fd5b600073ffffffffffffffffffffffffffffffffffffffff168273ffffffffffffffffffffffffffffffffffffffff160361228e576040517f08c379a000000000000000000000000000000000000000000000000000000000815260040161228590614762565b60405180910390fd5b61229b8383836001612828565b8273ffffffffffffffffffffffffffffffffffffffff166122bb826111bc565b73ffffffffffffffffffffffffffffffffffffffff1614612311576040517f08c379a0000000000000000000000000000000000000000000000000000000008152600401612308906146d0565b60405180910390fd5b6004600082815260200190815260200160002060006101000a81549073ffffffffffffffffffffffffffffffffffffffff02191690556001600360008573ffffffffffffffffffffffffffffffffffffffff1673ffffffffffffffffffffffffffffffffffffffff168152602001908152602001600020600082825403925050819055506001600360008473ffffffffffffffffffffffffffffffffffffffff1673ffffffffffffffffffffffffffffffffffffffff16815260200190815260200160002060008282540192505081905550816002600083815260200190815260200160002060006101000a81548173ffffffffffffffffffffffffffffffffffffffff021916908373ffffffffffffffffffffffffffffffffffffffff160217905550808273ffffffffffffffffffffffffffffffffffffffff168473ffffffffffffffffffffffffffffffffffffffff167fddf252ad1be2c89b69c2b068fc378daa952ba7f163c4a11628f55a4df523b3ef60405160405180910390a461249d838383600161290b565b505050565b60006002600083815260200190815260200160002060009054906101000a900473ffffffffffffffffffffffffffffffffffffffff169050919050565b60008073ffffffffffffffffffffffffffffffffffffffff16612501836124a2565b73ffffffffffffffffffffffffffffffffffffffff1614159050919050565b8173ffffffffffffffffffffffffffffffffffffffff168373ffffffffffffffffffffffffffffffffffffffff160361258e576040517f08c379a0000000000000000000000000000000000000000000000000000000008152600401612585906147ce565b60405180910390fd5b80600560008573ffffffffffffffffffffffffffffffffffffffff1673ffffffffffffffffffffffffffffffffffffffff16815260200190815260200160002060008473ffffffffffffffffffffffffffffffffffffffff1673ffffffffffffffffffffffffffffffffffffffff16815260200190815260200160002060006101000a81548160ff0219169083151502179055508173ffffffffffffffffffffffffffffffffffffffff168373ffffffffffffffffffffffffffffffffffffffff167f17307eab39ab6107e8899845ad3d59bd9653f200f220920489ca2b5937696c318360405161267f9190612f0f565b60405180910390a3505050565b6126978484846121a9565b6126a384848484612911565b6126e2576040517f08c379a00000000000000000000000000000000000000000000000000000000081526004016126d990614860565b60405180910390fd5b50505050565b606060405180602001604052806000815250905090565b60606000600161270e84612a98565b01905060008167ffffffffffffffff81111561272d5761272c613111565b5b6040519080825280601f01601f19166020018201604052801561275f5781602001600182028036833780820191505090505b509050600082602001820190505b6001156127c2578080600190039150507f3031323334353637383961626364656600000000000000000000000000000000600a86061a8153600a85816127b6576127b5614880565b5b0494506000850361276d575b819350505050919050565b6127d78383612beb565b6127e46000848484612911565b612823576040517f08c379a000000000000000000000000000000000000000000000000000000000815260040161281a90614860565b60405180910390fd5b505050565b61283484848484612e08565b600073ffffffffffffffffffffffffffffffffffffffff168473ffffffffffffffffffffffffffffffffffffffff161415801561289e5750600073ffffffffffffffffffffffffffffffffffffffff168373ffffffffffffffffffffffffffffffffffffffff1614155b1561290557600c600083815260200190815260200160002060009054906101000a900460ff1615612904576040517f08c379a00000000000000000000000000000000000000000000000000000000081526004016128fb906148fb565b60405180910390fd5b5b50505050565b50505050565b60006129328473ffffffffffffffffffffffffffffffffffffffff16612e0e565b15612a8b578373ffffffffffffffffffffffffffffffffffffffff1663150b7a0261295b611d8a565b8786866040518563ffffffff1660e01b815260040161297d9493929190614970565b6020604051808303816000875af19250505080156129b957506040513d601f19601f820116820180604052508101906129b691906149d1565b60015b612a3b573d80600081146129e9576040519150601f19603f3d011682016040523d82523d6000602084013e6129ee565b606091505b506000815103612a33576040517f08c379a0000000000000000000000000000000000000000000000000000000008152600401612a2a90614860565b60405180910390fd5b805181602001fd5b63150b7a0260e01b7bffffffffffffffffffffffffffffffffffffffffffffffffffffffff1916817bffffffffffffffffffffffffffffffffffffffffffffffffffffffff191614915050612a90565b600190505b949350505050565b600080600090507a184f03e93ff9f4daa797ed6e38ed64bf6a1f0100000000000000008310612af6577a184f03e93ff9f4daa797ed6e38ed64bf6a1f0100000000000000008381612aec57612aeb614880565b5b0492506040810190505b6d04ee2d6d415b85acef81000000008310612b33576d04ee2d6d415b85acef81000000008381612b2957612b28614880565b5b0492506020810190505b662386f26fc100008310612b6257662386f26fc100008381612b5857612b57614880565b5b0492506010810190505b6305f5e1008310612b8b576305f5e1008381612b8157612b80614880565b5b0492506008810190505b6127108310612bb0576127108381612ba657612ba5614880565b5b0492506004810190505b60648310612bd35760648381612bc957612bc8614880565b5b0492506002810190505b600a8310612be2576001810190505b80915050919050565b600073ffffffffffffffffffffffffffffffffffffffff168273ffffffffffffffffffffffffffffffffffffffff1603612c5a576040517f08c379a0000000000000000000000000000000000000000000000000000000008152600401612c5190614a4a565b60405180910390fd5b612c63816124df565b15612ca3576040517f08c379a0000000000000000000000000000000000000000000000000000000008152600401612c9a90614ab6565b60405180910390fd5b612cb1600083836001612828565b612cba816124df565b15612cfa576040517f08c379a0000000000000000000000000000000000000000000000000000000008152600401612cf190614ab6565b60405180910390fd5b6001600360008473ffffffffffffffffffffffffffffffffffffffff1673ffffffffffffffffffffffffffffffffffffffff16815260200190815260200160002060008282540192505081905550816002600083815260200190815260200160002060006101000a81548173ffffffffffffffffffffffffffffffffffffffff021916908373ffffffffffffffffffffffffffffffffffffffff160217905550808273ffffffffffffffffffffffffffffffffffffffff16600073ffffffffffffffffffffffffffffffffffffffff167fddf252ad1be2c89b69c2b068fc378daa952ba7f163c4a11628f55a4df523b3ef60405160405180910390a4612e0460008383600161290b565b5050565b50505050565b6000808273ffffffffffffffffffffffffffffffffffffffff163b119050919050565b60405180608001604052806060815260200160608152602001606081526020016000151581525090565b6000604051905090565b600080fd5b600080fd5b60007fffffffff0000000000000000000000000000000000000000000000000000000082169050919050565b612ea481612e6f565b8114612eaf57600080fd5b50565b600081359050612ec181612e9b565b92915050565b600060208284031215612edd57612edc612e65565b5b6000612eeb84828501612eb2565b91505092915050565b60008115159050919050565b612f0981612ef4565b82525050565b6000602082019050612f246000830184612f00565b92915050565b600081519050919050565b600082825260208201905092915050565b60005b83811015612f64578082015181840152602081019050612f49565b60008484015250505050565b6000601f19601f8301169050919050565b6000612f8c82612f2a565b612f968185612f35565b9350612fa6818560208601612f46565b612faf81612f70565b840191505092915050565b60006020820190508181036000830152612fd48184612f81565b905092915050565b6000819050919050565b612fef81612fdc565b8114612ffa57600080fd5b50565b60008135905061300c81612fe6565b92915050565b60006020828403121561302857613027612e65565b5b600061303684828501612ffd565b91505092915050565b600073ffffffffffffffffffffffffffffffffffffffff82169050919050565b600061306a8261303f565b9050919050565b61307a8161305f565b82525050565b60006020820190506130956000830184613071565b92915050565b6130a48161305f565b81146130af57600080fd5b50565b6000813590506130c18161309b565b92915050565b600080604083850312156130de576130dd612e65565b5b60006130ec858286016130b2565b92505060206130fd85828601612ffd565b9150509250929050565b600080fd5b600080fd5b7f4e487b7100000000000000000000000000000000000000000000000000000000600052604160045260246000fd5b61314982612f70565b810181811067ffffffffffffffff8211171561316857613167613111565b5b80604052505050565b600061317b612e5b565b90506131878282613140565b919050565b600067ffffffffffffffff8211156131a7576131a6613111565b5b6131b082612f70565b9050602081019050919050565b82818337600083830152505050565b60006131df6131da8461318c565b613171565b9050828152602081018484840111156131fb576131fa61310c565b5b6132068482856131bd565b509392505050565b600082601f83011261322357613222613107565b5b81356132338482602086016131cc565b91505092915050565b600067ffffffffffffffff82111561325757613256613111565b5b602082029050602081019050919050565b600080fd5b600080fd5b600080fd5b61328081612ef4565b811461328b57600080fd5b50565b60008135905061329d81613277565b92915050565b6000608082840312156132b9576132b861326d565b5b6132c36080613171565b9050600082013567ffffffffffffffff8111156132e3576132e2613272565b5b6132ef8482850161320e565b600083015250602082013567ffffffffffffffff81111561331357613312613272565b5b61331f8482850161320e565b602083015250604082013567ffffffffffffffff81111561334357613342613272565b5b61334f8482850161320e565b60408301525060606133638482850161328e565b60608301525092915050565b600061338261337d8461323c565b613171565b905080838252602082019050602084028301858111156133a5576133a4613268565b5b835b818110156133ec57803567ffffffffffffffff8111156133ca576133c9613107565b5b8086016133d789826132a3565b855260208501945050506020810190506133a7565b5050509392505050565b600082601f83011261340b5761340a613107565b5b813561341b84826020860161336f565b91505092915050565b600080600080600080600060e0888a03121561344357613442612e65565b5b600088013567ffffffffffffffff81111561346157613460612e6a565b5b61346d8a828b0161320e565b975050602061347e8a828b01612ffd565b965050604088013567ffffffffffffffff81111561349f5761349e612e6a565b5b6134ab8a828b0161320e565b95505060606134bc8a828b01612ffd565b945050608088013567ffffffffffffffff8111156134dd576134dc612e6a565b5b6134e98a828b0161320e565b93505060a088013567ffffffffffffffff81111561350a57613509612e6a565b5b6135168a828b0161320e565b92505060c088013567ffffffffffffffff81111561353757613536612e6a565b5b6135438a828b016133f6565b91505092959891949750929550565b600081519050919050565b600082825260208201905092915050565b6000819050602082019050919050565b61358781612fdc565b82525050565b6000613599838361357e565b60208301905092915050565b6000602082019050919050565b60006135bd82613552565b6135c7818561355d565b93506135d28361356e565b8060005b838110156136035781516135ea888261358d565b97506135f5836135a5565b9250506001810190506135d6565b5085935050505092915050565b6000602082019050818103600083015261362a81846135b2565b905092915050565b60006020828403121561364857613647612e65565b5b600082013567ffffffffffffffff81111561366657613665612e6a565b5b6136728482850161320e565b91505092915050565b61368481612fdc565b82525050565b600060e08201905081810360008301526136a4818a612f81565b90506136b3602083018961367b565b81810360408301526136c58188612f81565b905081810360608301526136d98187612f81565b905081810360808301526136ed8186612f81565b905081810360a08301526137018185612f81565b905081810360c08301526137158184612f81565b905098975050505050505050565b60008060006060848603121561373c5761373b612e65565b5b600061374a868287016130b2565b935050602061375b868287016130b2565b925050604061376c86828701612ffd565b9150509250925092565b60006020828403121561378c5761378b612e65565b5b600061379a848285016130b2565b91505092915050565b60006020820190506137b8600083018461367b565b92915050565b600082825260208201905092915050565b60006137da82612f2a565b6137e481856137be565b93506137f4818560208601612f46565b6137fd81612f70565b840191505092915050565b61381181612ef4565b82525050565b6000608083016000830151848203600086015261383482826137cf565b9150506020830151848203602086015261384e82826137cf565b9150506040830151848203604086015261386882826137cf565b915050606083015161387d6060860182613808565b508091505092915050565b600060208201905081810360008301526138a28184613817565b905092915050565b600080604083850312156138c1576138c0612e65565b5b60006138cf858286016130b2565b92505060206138e08582860161328e565b9150509250929050565b6000806040838503121561390157613900612e65565b5b600083013567ffffffffffffffff81111561391f5761391e612e6a565b5b61392b8582860161320e565b925050602061393c85828601612ffd565b9150509250929050565b600067ffffffffffffffff82111561396157613960613111565b5b61396a82612f70565b9050602081019050919050565b600061398a61398584613946565b613171565b9050828152602081018484840111156139a6576139a561310c565b5b6139b18482856131bd565b509392505050565b600082601f8301126139ce576139cd613107565b5b81356139de848260208601613977565b91505092915050565b60008060008060808587031215613a0157613a00612e65565b5b6000613a0f878288016130b2565b9450506020613a20878288016130b2565b9350506040613a3187828801612ffd565b925050606085013567ffffffffffffffff811115613a5257613a51612e6a565b5b613a5e878288016139b9565b91505092959194509250565b600060a082019050613a7f600083018861367b565b613a8c6020830187613071565b613a996040830186612f00565b613aa66060830185613071565b613ab3608083018461367b565b9695505050505050565b60008060408385031215613ad457613ad3612e65565b5b6000613ae2858286016130b2565b9250506020613af3858286016130b2565b9150509250929050565b7f4e487b7100000000000000000000000000000000000000000000000000000000600052602260045260246000fd5b60006002820490506001821680613b4457607f821691505b602082108103613b5757613b56613afd565b5b50919050565b7f4552433732313a20617070726f76616c20746f2063757272656e74206f776e6560008201527f7200000000000000000000000000000000000000000000000000000000000000602082015250565b6000613bb9602183612f35565b9150613bc482613b5d565b604082019050919050565b60006020820190508181036000830152613be881613bac565b9050919050565b7f4552433732313a20617070726f76652063616c6c6572206973206e6f7420746f60008201527f6b656e206f776e6572206f7220617070726f76656420666f7220616c6c000000602082015250565b6000613c4b603d83612f35565b9150613c5682613bef565b604082019050919050565b60006020820190508181036000830152613c7a81613c3e565b9050919050565b7f4f6e6c7920636f6e7472616374206f776e657200000000000000000000000000600082015250565b6000613cb7601383612f35565b9150613cc282613c81565b602082019050919050565b60006020820190508181036000830152613ce681613caa565b9050919050565b600081905092915050565b6000613d0382612f2a565b613d0d8185613ced565b9350613d1d818560208601612f46565b80840191505092915050565b6000613d358284613cf8565b915081905092915050565b7f5469636b65742065786973747300000000000000000000000000000000000000600082015250565b6000613d76600d83612f35565b9150613d8182613d40565b602082019050919050565b60006020820190508181036000830152613da581613d69565b9050919050565b7f496e76616c696420696e70757400000000000000000000000000000000000000600082015250565b6000613de2600d83612f35565b9150613ded82613dac565b602082019050919050565b60006020820190508181036000830152613e1181613dd5565b9050919050565b7f4e487b7100000000000000000000000000000000000000000000000000000000600052603260045260246000fd5b7f496e76616c696420646174610000000000000000000000000000000000000000600082015250565b6000613e7d600c83612f35565b9150613e8882613e47565b602082019050919050565b60006020820190508181036000830152613eac81613e70565b9050919050565b60008190508160005260206000209050919050565b60006020601f8301049050919050565b600082821b905092915050565b600060088302613f157fffffffffffffffffffffffffffffffffffffffffffffffffffffffffffffffff82613ed8565b613f1f8683613ed8565b95508019841693508086168417925050509392505050565b6000819050919050565b6000613f5c613f57613f5284612fdc565b613f37565b612fdc565b9050919050565b6000819050919050565b613f7683613f41565b613f8a613f8282613f63565b848454613ee5565b825550505050565b600090565b613f9f613f92565b613faa818484613f6d565b505050565b5b81811015613fce57613fc3600082613f97565b600181019050613fb0565b5050565b601f82111561401357613fe481613eb3565b613fed84613ec8565b81016020851015613ffc578190505b61401061400885613ec8565b830182613faf565b50505b505050565b600082821c905092915050565b600061403660001984600802614018565b1980831691505092915050565b600061404f8383614025565b9150826002028217905092915050565b61406882612f2a565b67ffffffffffffffff81111561408157614080613111565b5b61408b8254613b2c565b614096828285613fd2565b600060209050601f8311600181146140c957600084156140b7578287015190505b6140c18582614043565b865550614129565b601f1984166140d786613eb3565b60005b828110156140ff578489015182556001820191506020850194506020810190506140da565b8683101561411c5784890151614118601f891682614025565b8355505b6001600288020188555050505b505050505050565b7f4e487b7100000000000000000000000000000000000000000000000000000000600052601160045260246000fd5b600061416b82612fdc565b91507fffffffffffffffffffffffffffffffffffffffffffffffffffffffffffffffff820361419d5761419c614131565b5b600182019050919050565b600060808201905081810360008301526141c28187612f81565b90506141d1602083018661367b565b81810360408301526141e38185612f81565b905081810360608301526141f78184612f81565b905095945050505050565b7f4552433732313a2063616c6c6572206973206e6f7420746f6b656e206f776e6560008201527f72206f7220617070726f76656400000000000000000000000000000000000000602082015250565b600061425e602d83612f35565b915061426982614202565b604082019050919050565b6000602082019050818103600083015261428d81614251565b9050919050565b7f4552433732313a20696e76616c696420746f6b656e2049440000000000000000600082015250565b60006142ca601883612f35565b91506142d582614294565b602082019050919050565b600060208201905081810360008301526142f9816142bd565b9050919050565b7f4552433732313a2061646472657373207a65726f206973206e6f74206120766160008201527f6c6964206f776e65720000000000000000000000000000000000000000000000602082015250565b600061435c602983612f35565b915061436782614300565b604082019050919050565b6000602082019050818103600083015261438b8161434f565b9050919050565b7f546f6b656e20646f6573206e6f74206578697374000000000000000000000000600082015250565b60006143c8601483612f35565b91506143d382614392565b602082019050919050565b600060208201905081810360008301526143f7816143bb565b9050919050565b7f496e76616c696420707572636861736500000000000000000000000000000000600082015250565b6000614434601083612f35565b915061443f826143fe565b602082019050919050565b6000602082019050818103600083015261446381614427565b9050919050565b600081905092915050565b60008190508160005260206000209050919050565b6000815461449781613b2c565b6144a1818661446a565b945060018216600081146144bc57600181146144d157614504565b60ff1983168652811515820286019350614504565b6144da85614475565b60005b838110156144fc578154818901526001820191506020810190506144dd565b838801955050505b50505092915050565b6000614519828461448a565b915081905092915050565b7f4e6f7420656e6f75676820617661696c61626c65000000000000000000000000600082015250565b600061455a601483612f35565b915061456582614524565b602082019050919050565b600060208201905081810360008301526145898161454d565b9050919050565b7f4f776e6572206d69736d61746368000000000000000000000000000000000000600082015250565b60006145c6600e83612f35565b91506145d182614590565b602082019050919050565b600060208201905081810360008301526145f5816145b9565b9050919050565b600060608201905081810360008301526146168186612f81565b90506146256020830185613071565b614632604083018461367b565b949350505050565b60006146468285613cf8565b91506146528284613cf8565b91508190509392505050565b7f4552433732313a207472616e736665722066726f6d20696e636f72726563742060008201527f6f776e6572000000000000000000000000000000000000000000000000000000602082015250565b60006146ba602583612f35565b91506146c58261465e565b604082019050919050565b600060208201905081810360008301526146e9816146ad565b9050919050565b7f4552433732313a207472616e7366657220746f20746865207a65726f2061646460008201527f7265737300000000000000000000000000000000000000000000000000000000602082015250565b600061474c602483612f35565b9150614757826146f0565b604082019050919050565b6000602082019050818103600083015261477b8161473f565b9050919050565b7f4552433732313a20617070726f766520746f2063616c6c657200000000000000600082015250565b60006147b8601983612f35565b91506147c382614782565b602082019050919050565b600060208201905081810360008301526147e7816147ab565b9050919050565b7f4552433732313a207472616e7366657220746f206e6f6e20455243373231526560008201527f63656976657220696d706c656d656e7465720000000000000000000000000000602082015250565b600061484a603283612f35565b9150614855826147ee565b604082019050919050565b600060208201905081810360008301526148798161483d565b9050919050565b7f4e487b7100000000000000000000000000000000000000000000000000000000600052601260045260246000fd5b7f546f6b656e206973206e6f6e2d7472616e7366657261626c6500000000000000600082015250565b60006148e5601983612f35565b91506148f0826148af565b602082019050919050565b60006020820190508181036000830152614914816148d8565b9050919050565b600081519050919050565b600082825260208201905092915050565b60006149428261491b565b61494c8185614926565b935061495c818560208601612f46565b61496581612f70565b840191505092915050565b60006080820190506149856000830187613071565b6149926020830186613071565b61499f604083018561367b565b81810360608301526149b18184614937565b905095945050505050565b6000815190506149cb81612e9b565b92915050565b6000602082840312156149e7576149e6612e65565b5b60006149f5848285016149bc565b91505092915050565b7f4552433732313a206d696e7420746f20746865207a65726f2061646472657373600082015250565b6000614a34602083612f35565b9150614a3f826149fe565b602082019050919050565b60006020820190508181036000830152614a6381614a27565b9050919050565b7f4552433732313a20746f6b656e20616c7265616479206d696e74656400000000600082015250565b6000614aa0601c83612f35565b9150614aab82614a6a565b602082019050919050565b60006020820190508181036000830152614acf81614a93565b905091905056fea264697066735822122007c6b2909f42467d6bfe4674775943d4de66ce0c66b09858c6030f44beab76a364736f6c63430008130033",
  "immutableReferences": {},
  "source": "// SPDX-License-Identifier: MIT\r\npragma solidity ^0.8.0;\r\n\r\nimport \"@openzeppelin/contracts/token/ERC721/ERC721.sol\";\r\nimport \"@openzeppelin/contracts/utils/Counters.sol\";\r\nimport \"@openzeppelin/contracts/utils/Strings.sol\";\r\nimport \"@openzeppelin/contracts/utils/Base64.sol\";\r\n\r\ncontract TicketsBase is ERC721 {\r\n    using Counters for Counters.Counter;\r\n    using Strings for uint256;\r\n\r\n    Counters.Counter private _tokenIds;\r\n    \r\n    struct TicketMetadata {\r\n        string eventName;\r\n        uint256 eventDate;\r\n        string ticketType;\r\n        string eventVenue;\r\n        string metadataURI;\r\n        string qrCodeURI;\r\n        string verificationHash;\r\n    }\r\n\r\n    struct TicketSales {\r\n        uint256 price;\r\n        address owner;\r\n        bool isSold;\r\n        address currentOwner;\r\n        uint256 mintedQuantity;\r\n    }\r\n\r\n    struct BatchTicketData {\r\n        string metadataURI;\r\n        string qrCodeURI;\r\n        string verificationHash;\r\n        bool isNonTransferable;\r\n    }\r\n\r\n    mapping(string => TicketMetadata) public ticketMetadata;\r\n    mapping(string => TicketSales) public ticketSales;\r\n    mapping(uint256 => string) public tokenIdToTicketId;\r\n    mapping(uint256 => string) private tokenURIs;\r\n    mapping(uint256 => BatchTicketData) private batchTokenData;\r\n    mapping(uint256 => bool) public isNonTransferable;\r\n    \r\n    address public contractOwner;\r\n\r\n    event TicketCreated(string ticketId, uint256 tokenId, string metadataURI, string qrCodeURI);\r\n    event TicketPurchased(string ticketId, address buyer, uint256 tokenId);\r\n\r\n    constructor() ERC721(\"EventTicket\", \"EVTK\") {\r\n        contractOwner = msg.sender;\r\n    }\r\n\r\n    modifier onlyOwner() {\r\n        require(msg.sender == contractOwner, \"Only contract owner\");\r\n        _;\r\n    }\r\n\r\n    function _beforeTokenTransfer(\r\n        address from,\r\n        address to,\r\n        uint256 tokenId,\r\n        uint256 batchSize\r\n    ) internal virtual override {\r\n        super._beforeTokenTransfer(from, to, tokenId, batchSize);\r\n        if (from != address(0) && to != address(0)) {\r\n            require(!isNonTransferable[tokenId], \"Token is non-transferable\");\r\n        }\r\n    }\r\n\r\n    function initializeTicket(\r\n        string memory ticketId,\r\n        uint256 price,\r\n        string memory eventName,\r\n        uint256 eventDate,\r\n        string memory ticketType,\r\n        string memory eventVenue\r\n    ) internal {\r\n        if (bytes(ticketMetadata[ticketId].eventName).length == 0) {\r\n            ticketMetadata[ticketId] = TicketMetadata({\r\n                eventName: eventName,\r\n                eventDate: eventDate,\r\n                ticketType: ticketType,\r\n                eventVenue: eventVenue,\r\n                metadataURI: \"\",\r\n                qrCodeURI: \"\",\r\n                verificationHash: \"\"\r\n            });\r\n\r\n            ticketSales[ticketId] = TicketSales({\r\n                price: price,\r\n                owner: msg.sender,\r\n                isSold: false,\r\n                currentOwner: msg.sender,\r\n                mintedQuantity: 0\r\n            });\r\n        }\r\n    }\r\n\r\n    function createTicketsInBatch(\r\n        string memory ticketId,\r\n        uint256 price,\r\n        string memory eventName,\r\n        uint256 eventDate,\r\n        string memory ticketType,\r\n        string memory eventVenue,\r\n        BatchTicketData[] memory batchData\r\n    ) public onlyOwner returns (uint256[] memory) {\r\n        require(bytes(ticketMetadata[ticketId].eventName).length == 0, \"Ticket exists\");\r\n        require(price > 0 && batchData.length > 0, \"Invalid input\");\r\n        \r\n        initializeTicket(ticketId, price, eventName, eventDate, ticketType, eventVenue);\r\n        uint256[] memory newTokenIds = new uint256[](batchData.length);\r\n        \r\n        for (uint256 i = 0; i < batchData.length; i++) {\r\n            require(bytes(batchData[i].metadataURI).length > 0 && \r\n                    bytes(batchData[i].qrCodeURI).length > 0 && \r\n                    bytes(batchData[i].verificationHash).length > 0, \"Invalid data\");\r\n            \r\n            _tokenIds.increment();\r\n            uint256 newTokenId = _tokenIds.current();\r\n            \r\n            tokenIdToTicketId[newTokenId] = ticketId;\r\n            tokenURIs[newTokenId] = batchData[i].metadataURI;\r\n            batchTokenData[newTokenId] = batchData[i];\r\n            _safeMint(msg.sender, newTokenId);\r\n            \r\n            ticketSales[ticketId].mintedQuantity++;\r\n            newTokenIds[i] = newTokenId;\r\n            isNonTransferable[newTokenId] = batchData[i].isNonTransferable;\r\n\r\n            emit TicketCreated(ticketId, newTokenId, batchData[i].metadataURI, batchData[i].qrCodeURI);\r\n        }\r\n        return newTokenIds;\r\n    }\r\n\r\n    function getTicketBatchData(uint256 tokenId) public view returns (BatchTicketData memory) {\r\n        require(_exists(tokenId), \"Token does not exist\");\r\n        return batchTokenData[tokenId];\r\n    }\r\n\r\n    function buyTicket(string memory ticketId, uint256 quantity) public payable {\r\n        require(bytes(ticketMetadata[ticketId].eventName).length > 0 && \r\n                !ticketSales[ticketId].isSold && \r\n                msg.sender != ticketSales[ticketId].currentOwner && \r\n                quantity > 0, \"Invalid purchase\");\r\n\r\n        uint256[] memory purchasedTokenIds = new uint256[](quantity);\r\n        uint256 foundCount = 0;\r\n        uint256 totalTokens = _tokenIds.current();\r\n\r\n        for (uint256 i = 1; i <= totalTokens && foundCount < quantity; i++) {\r\n            if (keccak256(bytes(tokenIdToTicketId[i])) == keccak256(bytes(ticketId))) {\r\n                if (!ticketSales[ticketId].isSold) {\r\n                    purchasedTokenIds[foundCount] = i;\r\n                    foundCount++;\r\n                }\r\n            }\r\n        }\r\n\r\n        require(foundCount == quantity, \"Not enough available\");\r\n\r\n        for (uint256 i = 0; i < quantity; i++) {\r\n            uint256 tokenId = purchasedTokenIds[i];\r\n            address previousOwner = ticketSales[ticketId].currentOwner;\r\n            require(ownerOf(tokenId) == previousOwner, \"Owner mismatch\");\r\n\r\n            _approve(msg.sender, tokenId);\r\n            _transfer(previousOwner, msg.sender, tokenId);\r\n\r\n            if (isNonTransferable[tokenId]) {\r\n                _approve(address(0), tokenId);\r\n            }\r\n\r\n            emit TicketPurchased(ticketId, msg.sender, tokenId);\r\n        }\r\n\r\n        ticketSales[ticketId].currentOwner = msg.sender;\r\n        ticketSales[ticketId].isSold = true;\r\n    }\r\n} ",
  "sourcePath": "D:\\NFT-ticket\\contracts\\TicketsBase.sol",
  "compiler": {
    "name": "solc",
    "version": "0.8.19+commit.7dd6d404.Emscripten.clang"
  },
  "schemaVersion": "3.4.16",
  "updatedAt": "2024-11-13T16:08:20.837Z",
  "devdoc": {
    "events": {
      "Approval(address,address,uint256)": {
        "details": "Emitted when `owner` enables `approved` to manage the `tokenId` token."
      },
      "ApprovalForAll(address,address,bool)": {
        "details": "Emitted when `owner` enables or disables (`approved`) `operator` to manage all of its assets."
      },
      "Transfer(address,address,uint256)": {
        "details": "Emitted when `tokenId` token is transferred from `from` to `to`."
      }
    },
    "kind": "dev",
    "methods": {
      "approve(address,uint256)": {
        "details": "See {IERC721-approve}."
      },
      "balanceOf(address)": {
        "details": "See {IERC721-balanceOf}."
      },
      "getApproved(uint256)": {
        "details": "See {IERC721-getApproved}."
      },
      "isApprovedForAll(address,address)": {
        "details": "See {IERC721-isApprovedForAll}."
      },
      "name()": {
        "details": "See {IERC721Metadata-name}."
      },
      "ownerOf(uint256)": {
        "details": "See {IERC721-ownerOf}."
      },
      "safeTransferFrom(address,address,uint256)": {
        "details": "See {IERC721-safeTransferFrom}."
      },
      "safeTransferFrom(address,address,uint256,bytes)": {
        "details": "See {IERC721-safeTransferFrom}."
      },
      "setApprovalForAll(address,bool)": {
        "details": "See {IERC721-setApprovalForAll}."
      },
      "supportsInterface(bytes4)": {
        "details": "See {IERC165-supportsInterface}."
      },
      "symbol()": {
        "details": "See {IERC721Metadata-symbol}."
      },
      "tokenURI(uint256)": {
        "details": "See {IERC721Metadata-tokenURI}."
      },
      "transferFrom(address,address,uint256)": {
        "details": "See {IERC721-transferFrom}."
      }
    },
    "version": 1
  },
  "userdoc": {
    "kind": "user",
    "methods": {},
    "version": 1
  }
}